:100000000C9435000C945D000C945D000C945D0024
:100010000C945D000C945D000C945D000C945D00EC
:100020000C945D000C945D000C945D000C945D00DC
:100030000C945D000C945D000C945D000C945D00CC
:100040000C942D110C945D000C945D000C945D00DB
:100050000C945D000C945D000C945D000C945D00AC
:100060000C945D000C945D00991211241FBECFEF1B
:10007000D8E0DEBFCDBF11E0A0E0B1E0E0EAF6E2FB
:1000800002C005900D92AC37B107D9F722E0ACE77A
:10009000B1E001C01D92AC3EB207E1F710E0C5E34C
:1000A000D0E004C02197FE010E943413C433D1076D
:1000B000C9F70E9477110C944E130C940000CF9353
:1000C000DF93EC01E881F9810480F581E02D099549
:1000D0008BE192E09B838A838CE390E09E878D87FF
:1000E000E881F9810284F385E02DCE01099500971E
:1000F00001F19C0150E040E060E472E48FE090E0A8
:100100000E94EF128091DC029091DD02A091DE024C
:10011000B091DF0282179307A407B50710F4DA0144
:10012000C9018093DC029093DD02A093DE02B093BC
:10013000DF02CE01DF91CF91089520E0DC0160FF66
:1001400003C001C02D932D936250E0F77040D0F7AB
:1001500008953FB7F8948091810190918201A09118
:100160008301B091840126B5A89B05C02F3F19F0EB
:100170000196A11DB11D3FBFBA2FA92F982F882727
:10018000BC01CD01620F711D811D911D42E0660F02
:10019000771F881F991F4A95D1F708954F925F9254
:1001A0006F927F929F92AF92BF92CF92DF92EF9227
:1001B000FF920F931F93CF93DF9300D01F92CDB781
:1001C000DEB7F82E8091DC029091DD02A091DE0274
:1001D000B091DF02892B8A2B8B2BD9F00E94A900CA
:1001E0000091E8021091E9022091EA023091EB02BD
:1001F000601B710B820B930B0091DC021091DD02EE
:100200002091DE023091DF026017710782079307A9
:10021000C8F20E94A9006093E8027093E9028093FB
:10022000EA029093EB02E091E402F091E50230974C
:1002300059F04091E0025091E1026091E202709128
:10024000E3028F2D0995F82E0091E6021091E70246
:100250004F2C512C712C612C0115110509F45EC035
:10026000D8011C96EC901C978091DA029091DB02E9
:100270008436910510F41C961C92D801ED91FC91E6
:10028000A280B38019821A821B82FF2089F1F801B3
:100290003696D12CC12C2191222319F192809920DC
:1002A00001F130E050E040E02F5F3F4F4F4F5F4F94
:1002B000C301B2010E94A9129B01AC01892D90E0FB
:1002C000B0E0A0E0BC01CD016F5F7F4F8F4F9F4F2B
:1002D0000E94A912A1E0B0E0AC0FBD1FAC0DBD1D86
:1002E0008C93BFEFCB1ADB0A83E0C816D10499F6D2
:1002F000D8011D964D915C911E9712966D917C913F
:100300009E012F5F3F4FC801F5010995D8011C964A
:10031000EC921C9714960D911C919ECF8091D70260
:100320009091D8029C012F5F3F4F3093D8022093C9
:10033000D70249970CF44AC08FB7F8942091CF02A6
:100340003091D0024091D1025091D2028FBF809162
:10035000D3029091D402A091D502B091D602281B6D
:10036000390B4A0B5B0B21F421E030E040E050E018
:10037000E091D702F091D80288EE93E0E89FB001B7
:10038000E99F700DF89F700D1124072E000C880B4B
:10039000990B0E94CD123093DB022093DA02109267
:1003A000D8021092D7022FB7F8948091CF02909183
:1003B000D002A091D102B091D2022FBF8093D3027C
:1003C0009093D402A093D502B093D6020F900F90D1
:1003D0000F90DF91CF911F910F91FF90EF90DF90E1
:1003E000CF90BF90AF909F907F906F905F904F9015
:1003F00008958F929F92AF92BF92CF92DF92EF9229
:10040000FF924B015C010E94A9006B017C010E94DC
:10041000A9006C197D098E099F09683E734081050A
:100420009105A8F321E0821A9108A108B10888EE8D
:10043000C80E83E0D81EE11CF11C81149104A104B4
:10044000B10429F7FF90EF90DF90CF90BF90AF906D
:100450009F908F9008950F931F93CF93DF932091D8
:100460007F012F5F322F377030937F0120FF2BC029
:1004700020E831FD2064347009F02062205FFC0127
:10048000EC01239600E011E06485662329F070E01A
:10049000C8010E94B9126F5F6187322F369F030E29
:1004A00030E0311D1124311110C01682662311F085
:1004B000615061873196EC17FD0731F7DF91CF91DD
:1004C0001F910F91089520E0D4CF31503683EECFA5
:1004D000CF93DF93EC010E94A90079836883DF91B9
:1004E000CF910895CF93DF93EC010E94A90028815A
:1004F0003981621B730B6A307105B8F3DF91CF91BC
:1005000008954F925F926F927F928F929F92AF92D7
:10051000CF92DF92EF92FF920F931F93CF93DF93CF
:10052000EB010F962C010E947202F894E881F98188
:100530000BB100621BB11F7D1BB9CA848F814C2D8A
:10054000481B842F4F839F846A807B80FD84EC84CA
:10055000DE84F394E394D3949E8138858984AB84BC
:100560004181D30120E0622F722F7181442788944A
:100570007111780F08F47FEF81958894F0FC470F94
:1005800047958894F1FC470F47958894F2FC470FF4
:1005900047958894F3FC470F47958894F4FC470FE0
:1005A00047958894F5FC470F47958894F6FC470FCC
:1005B00047958894F7FC470F47958894272FF110AB
:1005C000242F8C0D422F002C0BB900C047FF1BB904
:1005D00070812227889400C000C0002C1BB97111C3
:1005E000790F00C0002C0BB900C046FF1BB908F4FE
:1005F0007FEF9195889400C000C0002C1BB9E0FCEF
:10060000270F00C0002C0BB900C045FF1BB9279570
:100610008894E1FC270F00C000C0002C1BB927956F
:10062000889400C0002C0BB900C044FF1BB9E2FC49
:10063000270F2795889400C000C0002C1BB9E3FC4D
:10064000270F00C0002C0BB900C043FF1BB9279532
:100650008894E4FC270F00C000C0002C1BB927952C
:10066000889400C0002C0BB900C042FF1BB9E5FC08
:10067000270F2795889400C000C0002C1BB9E6FC0A
:10068000270F00C0002C0BB900C041FF1BB92795F4
:100690008894E7FC270F00C000C0002C1BB92795E9
:1006A000889400C0002C0BB900C040FF1BB9472F35
:1006B000E110422F980D00C000C0002C1BB900C0F3
:1006C00000C0002C0BB900C047FF1BB97281222764
:1006D000889400C000C0002C1BB97111730F00C0BA
:1006E000002C0BB900C046FF1BB908F47FEFE90DE1
:1006F000F11D00C000C0002C1BB9D0FC270F00C0AA
:10070000002C0BB900C045FF1BB927958894D1FC7C
:10071000270F00C000C0002C1BB92795889400C08B
:10072000002C0BB900C044FF1BB9D2FC270F279542
:10073000889400C000C0002C1BB9D3FC270F00C058
:10074000002C0BB900C043FF1BB927958894D4FC3B
:10075000270F00C000C0002C1BB92795889400C04B
:10076000002C0BB900C042FF1BB9D5FC270F279501
:10077000889400C000C0002C1BB9D6FC270F00C015
:10078000002C0BB900C041FF1BB927958894D7FCFA
:10079000270F00C000C0002C1BB92795889400C00B
:1007A000002C0BB900C040FF1BB9472FD110422FBE
:1007B000319500C000C0002C1BB93A0D00C000C02C
:1007C0000BB900C047FF1BB971812227889400C074
:1007D00000C0002C1BB97111780F00C0002C0BB9A0
:1007E00000C046FF1BB908F47FEF8195889400C0D4
:1007F00000C0002C1BB9F0FC270F00C0002C0BB967
:1008000000C045FF1BB927958894F1FC270F00C055
:1008100000C0002C1BB92795889400C0002C0BB990
:1008200000C044FF1BB9F2FC270F2795889400C035
:1008300000C0002C1BB9F3FC270F00C0002C0BB923
:1008400000C043FF1BB927958894F4FC270F00C014
:1008500000C0002C1BB92795889400C0002C0BB950
:1008600000C042FF1BB9F5FC270F2795889400C0F4
:1008700000C0002C1BB9F6FC270F00C0002C0BB9E0
:1008800000C041FF1BB927958894F7FC270F00C0D3
:1008900000C0002C1BB92795889400C0002C0BB910
:1008A00000C040FF1BB9472FF110422F8C0D00C034
:1008B00000C0002C1BB9119709F086CE20EE31E064
:1008C000D3010E940E13DC01CB01F4E0B695A7958D
:1008D00097958795FA95D1F730E020E0B901EAE9DC
:1008E0006E9E060C611D7E9E600D711D1124670DAC
:1008F000711D860F971FA11DB11D893E43E094070E
:10090000A105B10508F434C0885E9340A109B1097E
:1009100042E0B695A795979587954A95D1F747E018
:10092000849F080E211D949F200D311D1124290F35
:10093000311D60917E0170E0860F971F820F931F1B
:100940004091CF025091D0026091D1027091D202B9
:10095000292F3327420F531F611D711D4093CF0272
:100960005093D0026093D1027093D20280937E01A3
:100970007894C201DF91CF911F910F91FF90EF907A
:10098000DF90CF90AF909F908F907F906F905F900F
:100990004F900C94680280E991E00895559A08956B
:1009A0004F925F926F927F928F929F92AF92CF926F
:1009B000DF92EF92FF920F931F93CF93DF93EB01A0
:1009C0000F962C010E947202F894E881F9810BB114
:1009D00000641BB11F7B1BB9CA848F814C2D481B3F
:1009E000842F4F839F846A807B80FD84EC84DE8427
:1009F000F394E394D3949E8138858984AB844181B8
:100A0000D30120E0622F722F7181442788947111E5
:100A1000780F08F47FEF81958894F0FC470F479595
:100A20008894F1FC470F47958894F2FC470F47954F
:100A30008894F3FC470F47958894F4FC470F47953B
:100A40008894F5FC470F47958894F6FC470F479527
:100A50008894F7FC470F47958894272FF110242F8F
:100A60008C0D422F002C0BB900C047FF1BB97081C1
:100A70002227889400C000C0002C1BB97111790F87
:100A800000C0002C0BB900C046FF1BB908F47FEF73
:100A90009195889400C000C0002C1BB9E0FC270F82
:100AA00000C0002C0BB900C045FF1BB927958894E6
:100AB000E1FC270F00C000C0002C1BB927958894CB
:100AC00000C0002C0BB900C044FF1BB9E2FC270F8B
:100AD0002795889400C000C0002C1BB9E3FC270FA9
:100AE00000C0002C0BB900C043FF1BB927958894A8
:100AF000E4FC270F00C000C0002C1BB92795889488
:100B000000C0002C0BB900C042FF1BB9E5FC270F49
:100B10002795889400C000C0002C1BB9E6FC270F65
:100B200000C0002C0BB900C041FF1BB92795889469
:100B3000E7FC270F00C000C0002C1BB92795889444
:100B400000C0002C0BB900C040FF1BB9472FE110BB
:100B5000422F980D00C000C0002C1BB900C000C07F
:100B6000002C0BB900C047FF1BB972812227889463
:100B700000C000C0002C1BB97111730F00C0002C05
:100B80000BB900C046FF1BB908F47FEFE90DF11D5A
:100B900000C000C0002C1BB9D0FC270F00C0002CE7
:100BA0000BB900C045FF1BB927958894D1FC270FCE
:100BB00000C000C0002C1BB92795889400C0002CF1
:100BC0000BB900C044FF1BB9D2FC270F27958894AE
:100BD00000C000C0002C1BB9D3FC270F00C0002CA4
:100BE0000BB900C043FF1BB927958894D4FC270F8D
:100BF00000C000C0002C1BB92795889400C0002CB1
:100C00000BB900C042FF1BB9D5FC270F279588946C
:100C100000C000C0002C1BB9D6FC270F00C0002C60
:100C20000BB900C041FF1BB927958894D7FC270F4B
:100C300000C000C0002C1BB92795889400C0002C70
:100C40000BB900C040FF1BB9472FD110422F31957F
:100C500000C000C0002C1BB93A0D00C000C00BB989
:100C600000C047FF1BB971812227889400C000C0D3
:100C7000002C1BB97111780F00C0002C0BB900C0FB
:100C800046FF1BB908F47FEF8195889400C000C02F
:100C9000002C1BB9F0FC270F00C0002C0BB900C0C2
:100CA00045FF1BB927958894F1FC270F00C000C0B1
:100CB000002C1BB92795889400C0002C0BB900C0EC
:100CC00044FF1BB9F2FC270F2795889400C000C091
:100CD000002C1BB9F3FC270F00C0002C0BB900C07F
:100CE00043FF1BB927958894F4FC270F00C000C070
:100CF000002C1BB92795889400C0002C0BB900C0AC
:100D000042FF1BB9F5FC270F2795889400C000C04F
:100D1000002C1BB9F6FC270F00C0002C0BB900C03B
:100D200041FF1BB927958894F7FC270F00C000C02E
:100D3000002C1BB92795889400C0002C0BB900C06B
:100D400040FF1BB9472FF110422F8C0D00C000C08F
:100D5000002C1BB9119709F086CE20EE31E0D301AB
:100D60000E940E13DC01CB01F4E0B695A795979590
:100D70008795FA95D1F730E020E0B901EAE96E9E57
:100D8000060C611D7E9E600D711D1124670D711D85
:100D9000860F971FA11DB11D893E43E09407A10551
:100DA000B10508F434C0885E9340A109B10942E05E
:100DB000B695A795979587954A95D1F747E0849F73
:100DC000080E211D949F200D311D1124290F311D66
:100DD00060917E0170E0860F971F820F931F4091F4
:100DE000CF025091D0026091D1027091D202292F8E
:100DF0003327420F531F611D711D4093CF02509343
:100E0000D0026093D1027093D20280937E017894D5
:100E1000C201DF91CF911F910F91FF90EF90DF9072
:100E2000CF90AF909F908F907F906F905F904F90FA
:100E30000C946802569A08954F925F926F927F9237
:100E40008F929F92AF92CF92DF92EF92FF920F9389
:100E50001F93CF93DF93EB010F962C010E94720238
:100E6000F894E881F9810BB100681BB11F771BB9B9
:100E7000CA848F814C2D481B842F4F839F846A80A6
:100E80007B80FD84EC84DE84F394E394D3949E8190
:100E900038858984AB844181D30120E0622F722F91
:100EA0007181442788947111780F08F47FEF819540
:100EB0008894F0FC470F47958894F1FC470F4795BD
:100EC0008894F2FC470F47958894F3FC470F4795A9
:100ED0008894F4FC470F47958894F5FC470F479595
:100EE0008894F6FC470F47958894F7FC470F479581
:100EF0008894272FF110242F8C0D422F002C0BB932
:100F000000C047FF1BB970812227889400C000C031
:100F1000002C1BB97111790F00C0002C0BB900C057
:100F200046FF1BB908F47FEF9195889400C000C07C
:100F3000002C1BB9E0FC270F00C0002C0BB900C02F
:100F400045FF1BB927958894E1FC270F00C000C01E
:100F5000002C1BB92795889400C0002C0BB900C049
:100F600044FF1BB9E2FC270F2795889400C000C0FE
:100F7000002C1BB9E3FC270F00C0002C0BB900C0EC
:100F800043FF1BB927958894E4FC270F00C000C0DD
:100F9000002C1BB92795889400C0002C0BB900C009
:100FA00042FF1BB9E5FC270F2795889400C000C0BD
:100FB000002C1BB9E6FC270F00C0002C0BB900C0A9
:100FC00041FF1BB927958894E7FC270F00C000C09C
:100FD000002C1BB92795889400C0002C0BB900C0C9
:100FE00040FF1BB9472FE110422F980D00C000C0F1
:100FF000002C1BB900C000C0002C0BB900C047FF7B
:101000001BB972812227889400C000C0002C1BB934
:101010007111730F00C0002C0BB900C046FF1BB943
:1010200008F47FEFE90DF11D00C000C0002C1BB9D2
:10103000D0FC270F00C0002C0BB900C045FF1BB926
:1010400027958894D1FC270F00C000C0002C1BB945
:101050002795889400C0002C0BB900C044FF1BB931
:10106000D2FC270F2795889400C000C0002C1BB924
:10107000D3FC270F00C0002C0BB900C043FF1BB9E5
:1010800027958894D4FC270F00C000C0002C1BB902
:101090002795889400C0002C0BB900C042FF1BB9F3
:1010A000D5FC270F2795889400C000C0002C1BB9E1
:1010B000D6FC270F00C0002C0BB900C041FF1BB9A4
:1010C00027958894D7FC270F00C000C0002C1BB9BF
:1010D0002795889400C0002C0BB900C040FF1BB9B5
:1010E000472FD110422F319500C000C0002C1BB9F2
:1010F0003A0D00C000C00BB900C047FF1BB9718199
:101100002227889400C000C0002C1BB97111780FF1
:1011100000C0002C0BB900C046FF1BB908F47FEFDC
:101120008195889400C000C0002C1BB9F0FC270FEB
:1011300000C0002C0BB900C045FF1BB9279588944F
:10114000F1FC270F00C000C0002C1BB92795889424
:1011500000C0002C0BB900C044FF1BB9F2FC270FE4
:101160002795889400C000C0002C1BB9F3FC270F02
:1011700000C0002C0BB900C043FF1BB92795889411
:10118000F4FC270F00C000C0002C1BB927958894E1
:1011900000C0002C0BB900C042FF1BB9F5FC270FA3
:1011A0002795889400C000C0002C1BB9F6FC270FBF
:1011B00000C0002C0BB900C041FF1BB927958894D3
:1011C000F7FC270F00C000C0002C1BB9279588949E
:1011D00000C0002C0BB900C040FF1BB9472FF11015
:1011E000422F8C0D00C000C0002C1BB9119709F0D4
:1011F00086CE20EE31E0D3010E940E13DC01CB013C
:10120000F4E0B695A79597958795FA95D1F730E0D4
:1012100020E0B901EAE96E9E060C611D7E9E600D1C
:10122000711D1124670D711D860F971FA11DB11D22
:10123000893E43E09407A105B10508F434C0885EF7
:101240009340A109B10942E0B695A7959795879576
:101250004A95D1F747E0849F080E211D949F200DE9
:10126000311D1124290F311D60917E0170E0860F20
:10127000971F820F931F4091CF025091D00260912F
:10128000D1027091D202292F3327420F531F611DC3
:10129000711D4093CF025093D0026093D10270939E
:1012A000D20280937E017894C201DF91CF911F9189
:1012B0000F91FF90EF90DF90CF90AF909F908F9025
:1012C0007F906F905F904F900C946802579A0895AA
:1012D0004F925F926F927F928F929F92AF92CF9236
:1012E000DF92EF92FF920F931F93CF93DF93EB0167
:1012F0000F962C010E947202F894E881F98105B1E1
:10130000016015B11E7F15B9CA848F814C2D481B11
:10131000842F4F839F846A807B80FD84EC84DE84ED
:10132000F394E394D3949E8138858984AB8441817E
:10133000D30120E0622F722F7181442788947111AC
:10134000780F08F47FEF81958894F0FC470F47955C
:101350008894F1FC470F47958894F2FC470F479516
:101360008894F3FC470F47958894F4FC470F479502
:101370008894F5FC470F47958894F6FC470F4795EE
:101380008894F7FC470F47958894272FF110242F56
:101390008C0D422F002C05B900C047FF15B9708194
:1013A0002227889400C000C0002C15B97111790F54
:1013B00000C0002C05B900C046FF15B908F47FEF46
:1013C0009195889400C000C0002C15B9E0FC270F4F
:1013D00000C0002C05B900C045FF15B927958894B9
:1013E000E1FC270F00C000C0002C15B92795889498
:1013F00000C0002C05B900C044FF15B9E2FC270F5E
:101400002795889400C000C0002C15B9E3FC270F75
:1014100000C0002C05B900C043FF15B9279588947A
:10142000E4FC270F00C000C0002C15B92795889454
:1014300000C0002C05B900C042FF15B9E5FC270F1C
:101440002795889400C000C0002C15B9E6FC270F32
:1014500000C0002C05B900C041FF15B9279588943C
:10146000E7FC270F00C000C0002C15B92795889411
:1014700000C0002C05B900C040FF15B9472FE1108E
:10148000422F980D00C000C0002C15B900C000C04C
:10149000002C05B900C047FF15B972812227889436
:1014A00000C000C0002C15B97111730F00C0002CD2
:1014B00005B900C046FF15B908F47FEFE90DF11D2D
:1014C00000C000C0002C15B9D0FC270F00C0002CB4
:1014D00005B900C045FF15B927958894D1FC270FA1
:1014E00000C000C0002C15B92795889400C0002CBE
:1014F00005B900C044FF15B9D2FC270F2795889481
:1015000000C000C0002C15B9D3FC270F00C0002C70
:1015100005B900C043FF15B927958894D4FC270F5F
:1015200000C000C0002C15B92795889400C0002C7D
:1015300005B900C042FF15B9D5FC270F279588943F
:1015400000C000C0002C15B9D6FC270F00C0002C2D
:1015500005B900C041FF15B927958894D7FC270F1E
:1015600000C000C0002C15B92795889400C0002C3D
:1015700005B900C040FF15B9472FD110422F319552
:1015800000C000C0002C15B93A0D00C000C005B95C
:1015900000C047FF15B971812227889400C000C0A0
:1015A000002C15B97111780F00C0002C05B900C0CE
:1015B00046FF15B908F47FEF8195889400C000C0FC
:1015C000002C15B9F0FC270F00C0002C05B900C095
:1015D00045FF15B927958894F1FC270F00C000C07E
:1015E000002C15B92795889400C0002C05B900C0BF
:1015F00044FF15B9F2FC270F2795889400C000C05E
:10160000002C15B9F3FC270F00C0002C05B900C051
:1016100043FF15B927958894F4FC270F00C000C03C
:10162000002C15B92795889400C0002C05B900C07E
:1016300042FF15B9F5FC270F2795889400C000C01C
:10164000002C15B9F6FC270F00C0002C05B900C00E
:1016500041FF15B927958894F7FC270F00C000C0FB
:10166000002C15B92795889400C0002C05B900C03E
:1016700040FF15B9472FF110422F8C0D00C000C05C
:10168000002C15B9119709F086CE20EE31E0D30178
:101690000E940E13DC01CB01F4E0B695A795979557
:1016A0008795FA95D1F730E020E0B901EAE96E9E1E
:1016B000060C611D7E9E600D711D1124670D711D4C
:1016C000860F971FA11DB11D893E43E09407A10518
:1016D000B10508F434C0885E9340A109B10942E025
:1016E000B695A795979587954A95D1F747E0849F3A
:1016F000080E211D949F200D311D1124290F311D2D
:1017000060917E0170E0860F971F820F931F4091BA
:10171000CF025091D0026091D1027091D202292F54
:101720003327420F531F611D711D4093CF02509309
:10173000D0026093D1027093D20280937E0178949C
:10174000C201DF91CF911F910F91FF90EF90DF9039
:10175000CF90AF909F908F907F906F905F904F90C1
:101760000C946802209A08954F925F926F927F9234
:101770008F929F92AF92CF92DF92EF92FF920F9350
:101780001F93CF93DF93EB010F962C010E947202FF
:10179000F894E881F9810BB108601BB1177F1BB980
:1017A000CA848F814C2D481B842F4F839F846A806D
:1017B0007B80FD84EC84DE84F394E394D3949E8157
:1017C00038858984AB844181D30120E0622F722F58
:1017D0007181442788947111780F08F47FEF819507
:1017E0008894F0FC470F47958894F1FC470F479584
:1017F0008894F2FC470F47958894F3FC470F479570
:101800008894F4FC470F47958894F5FC470F47955B
:101810008894F6FC470F47958894F7FC470F479547
:101820008894272FF110242F8C0D422F002C0BB9F8
:1018300000C047FF1BB970812227889400C000C0F8
:10184000002C1BB97111790F00C0002C0BB900C01E
:1018500046FF1BB908F47FEF9195889400C000C043
:10186000002C1BB9E0FC270F00C0002C0BB900C0F6
:1018700045FF1BB927958894E1FC270F00C000C0E5
:10188000002C1BB92795889400C0002C0BB900C010
:1018900044FF1BB9E2FC270F2795889400C000C0C5
:1018A000002C1BB9E3FC270F00C0002C0BB900C0B3
:1018B00043FF1BB927958894E4FC270F00C000C0A4
:1018C000002C1BB92795889400C0002C0BB900C0D0
:1018D00042FF1BB9E5FC270F2795889400C000C084
:1018E000002C1BB9E6FC270F00C0002C0BB900C070
:1018F00041FF1BB927958894E7FC270F00C000C063
:10190000002C1BB92795889400C0002C0BB900C08F
:1019100040FF1BB9472FE110422F980D00C000C0B7
:10192000002C1BB900C000C0002C0BB900C047FF41
:101930001BB972812227889400C000C0002C1BB9FB
:101940007111730F00C0002C0BB900C046FF1BB90A
:1019500008F47FEFE90DF11D00C000C0002C1BB999
:10196000D0FC270F00C0002C0BB900C045FF1BB9ED
:1019700027958894D1FC270F00C000C0002C1BB90C
:101980002795889400C0002C0BB900C044FF1BB9F8
:10199000D2FC270F2795889400C000C0002C1BB9EB
:1019A000D3FC270F00C0002C0BB900C043FF1BB9AC
:1019B00027958894D4FC270F00C000C0002C1BB9C9
:1019C0002795889400C0002C0BB900C042FF1BB9BA
:1019D000D5FC270F2795889400C000C0002C1BB9A8
:1019E000D6FC270F00C0002C0BB900C041FF1BB96B
:1019F00027958894D7FC270F00C000C0002C1BB986
:101A00002795889400C0002C0BB900C040FF1BB97B
:101A1000472FD110422F319500C000C0002C1BB9B8
:101A20003A0D00C000C00BB900C047FF1BB971815F
:101A30002227889400C000C0002C1BB97111780FB8
:101A400000C0002C0BB900C046FF1BB908F47FEFA3
:101A50008195889400C000C0002C1BB9F0FC270FB2
:101A600000C0002C0BB900C045FF1BB92795889416
:101A7000F1FC270F00C000C0002C1BB927958894EB
:101A800000C0002C0BB900C044FF1BB9F2FC270FAB
:101A90002795889400C000C0002C1BB9F3FC270FC9
:101AA00000C0002C0BB900C043FF1BB927958894D8
:101AB000F4FC270F00C000C0002C1BB927958894A8
:101AC00000C0002C0BB900C042FF1BB9F5FC270F6A
:101AD0002795889400C000C0002C1BB9F6FC270F86
:101AE00000C0002C0BB900C041FF1BB9279588949A
:101AF000F7FC270F00C000C0002C1BB92795889465
:101B000000C0002C0BB900C040FF1BB9472FF110DB
:101B1000422F8C0D00C000C0002C1BB9119709F09A
:101B200086CE20EE31E0D3010E940E13DC01CB0102
:101B3000F4E0B695A79597958795FA95D1F730E09B
:101B400020E0B901EAE96E9E060C611D7E9E600DE3
:101B5000711D1124670D711D860F971FA11DB11DE9
:101B6000893E43E09407A105B10508F434C0885EBE
:101B70009340A109B10942E0B695A795979587953D
:101B80004A95D1F747E0849F080E211D949F200DB0
:101B9000311D1124290F311D60917E0170E0860FE7
:101BA000971F820F931F4091CF025091D0026091F6
:101BB000D1027091D202292F3327420F531F611D8A
:101BC000711D4093CF025093D0026093D102709365
:101BD000D20280937E017894C201DF91CF911F9150
:101BE0000F91FF90EF90DF90CF90AF909F908F90EC
:101BF0007F906F905F904F900C946802539A089575
:101C00004F925F926F927F928F929F92AF92CF92FC
:101C1000DF92EF92FF920F931F93CF93DF93EB012D
:101C20000F962C010E947202F894E881F9810BB1A1
:101C300000611BB11F7E1BB9CA848F814C2D481BCC
:101C4000842F4F839F846A807B80FD84EC84DE84B4
:101C5000F394E394D3949E8138858984AB84418145
:101C6000D30120E0622F722F718144278894711173
:101C7000780F08F47FEF81958894F0FC470F479523
:101C80008894F1FC470F47958894F2FC470F4795DD
:101C90008894F3FC470F47958894F4FC470F4795C9
:101CA0008894F5FC470F47958894F6FC470F4795B5
:101CB0008894F7FC470F47958894272FF110242F1D
:101CC0008C0D422F002C0BB900C047FF1BB970814F
:101CD0002227889400C000C0002C1BB97111790F15
:101CE00000C0002C0BB900C046FF1BB908F47FEF01
:101CF0009195889400C000C0002C1BB9E0FC270F10
:101D000000C0002C0BB900C045FF1BB92795889473
:101D1000E1FC270F00C000C0002C1BB92795889458
:101D200000C0002C0BB900C044FF1BB9E2FC270F18
:101D30002795889400C000C0002C1BB9E3FC270F36
:101D400000C0002C0BB900C043FF1BB92795889435
:101D5000E4FC270F00C000C0002C1BB92795889415
:101D600000C0002C0BB900C042FF1BB9E5FC270FD7
:101D70002795889400C000C0002C1BB9E6FC270FF3
:101D800000C0002C0BB900C041FF1BB927958894F7
:101D9000E7FC270F00C000C0002C1BB927958894D2
:101DA00000C0002C0BB900C040FF1BB9472FE11049
:101DB000422F980D00C000C0002C1BB900C000C00D
:101DC000002C0BB900C047FF1BB9728122278894F1
:101DD00000C000C0002C1BB97111730F00C0002C93
:101DE0000BB900C046FF1BB908F47FEFE90DF11DE8
:101DF00000C000C0002C1BB9D0FC270F00C0002C75
:101E00000BB900C045FF1BB927958894D1FC270F5B
:101E100000C000C0002C1BB92795889400C0002C7E
:101E20000BB900C044FF1BB9D2FC270F279588943B
:101E300000C000C0002C1BB9D3FC270F00C0002C31
:101E40000BB900C043FF1BB927958894D4FC270F1A
:101E500000C000C0002C1BB92795889400C0002C3E
:101E60000BB900C042FF1BB9D5FC270F27958894FA
:101E700000C000C0002C1BB9D6FC270F00C0002CEE
:101E80000BB900C041FF1BB927958894D7FC270FD9
:101E900000C000C0002C1BB92795889400C0002CFE
:101EA0000BB900C040FF1BB9472FD110422F31950D
:101EB00000C000C0002C1BB93A0D00C000C00BB917
:101EC00000C047FF1BB971812227889400C000C061
:101ED000002C1BB97111780F00C0002C0BB900C089
:101EE00046FF1BB908F47FEF8195889400C000C0BD
:101EF000002C1BB9F0FC270F00C0002C0BB900C050
:101F000045FF1BB927958894F1FC270F00C000C03E
:101F1000002C1BB92795889400C0002C0BB900C079
:101F200044FF1BB9F2FC270F2795889400C000C01E
:101F3000002C1BB9F3FC270F00C0002C0BB900C00C
:101F400043FF1BB927958894F4FC270F00C000C0FD
:101F5000002C1BB92795889400C0002C0BB900C039
:101F600042FF1BB9F5FC270F2795889400C000C0DD
:101F7000002C1BB9F6FC270F00C0002C0BB900C0C9
:101F800041FF1BB927958894F7FC270F00C000C0BC
:101F9000002C1BB92795889400C0002C0BB900C0F9
:101FA00040FF1BB9472FF110422F8C0D00C000C01D
:101FB000002C1BB9119709F086CE20EE31E0D30139
:101FC0000E940E13DC01CB01F4E0B695A79597951E
:101FD0008795FA95D1F730E020E0B901EAE96E9EE5
:101FE000060C611D7E9E600D711D1124670D711D13
:101FF000860F971FA11DB11D893E43E09407A105DF
:10200000B10508F434C0885E9340A109B10942E0EB
:10201000B695A795979587954A95D1F747E0849F00
:10202000080E211D949F200D311D1124290F311DF3
:1020300060917E0170E0860F971F820F931F409181
:10204000CF025091D0026091D1027091D202292F1B
:102050003327420F531F611D711D4093CF025093D0
:10206000D0026093D1027093D20280937E01789463
:10207000C201DF91CF911F910F91FF90EF90DF9000
:10208000CF90AF909F908F907F906F905F904F9088
:102090000C946802549A08950F931F93CF93DF9383
:1020A000CDB7DEB762970FB6F894DEBF0FBECDBFD7
:1020B0008C01F901DC011C968C917A8369835C8325
:1020C0004B835E834D8390819D8791819E87928112
:1020D0009F878130F1F4CE0101960E942B0283E0AC
:1020E000888B1A8A198AD801ED91FC910484F585B0
:1020F000E02DBE016F5F7F4FC801099562960FB654
:10210000F894DEBF0FBECDBFDF91CF911F910F912D
:1021100008951C861B861A86198618861F82DFCFB3
:102120000F931F93CF93DF93CDB7DEB762970FB6B0
:10213000F894DEBF0FBECDBF8C01F901DC011C9607
:102140008C917A8369835C834B835E834D8390811A
:102150009D8791819E8792819F878130E9F4CE018E
:1021600001960E942B02188A1A8A198AD801ED91C9
:10217000FC910484F585E02DBE016F5F7F4FC8019F
:10218000099562960FB6F894DEBF0FBECDBFDF9102
:10219000CF911F910F9108951C861B861A86198670
:1021A00018861F82E0CF90E080E00895FC018585CD
:1021B00096850895CF93DF9300D000D000D0CDB79F
:1021C000DEB7AB011C821D821E82DC01ED91FC9109
:1021D0000190F081E02D19821A821B829E012F5FEF
:1021E0003F4FBE016C5F7F4F099526960FB6F8945E
:1021F000DEBF0FBECDBFDF91CF910895FC0184E01B
:1022000091E091838083138212828FEF868387838C
:10221000808781878287838781E0848716861586F9
:10222000158214828091E6029091E702892B21F4B5
:10223000F093E702E093E602A0917C01B0917D016A
:10224000109721F01596FC93EE931497F0937D016F
:10225000E0937C0108950E9449131F920F920FB6DC
:102260000F9211242F933F938F939F93AF93BF931C
:102270008091CF029091D002A091D102B091D20270
:102280003091800123E0230F2D3758F50196A11DD1
:10229000B11D209380018093CF029093D002A09330
:1022A000D102B093D2028091810190918201A091DC
:1022B0008301B09184010196A11DB11D809381011C
:1022C00090938201A0938301B0938401BF91AF9159
:1022D0009F918F913F912F910F900FBE0F901F9064
:1022E000189526E8230F0296A11DB11DD2CF789430
:1022F00084B5826084BD84B5816084BD85B582600B
:1023000085BD85B5816085BD80916E0081608093BB
:102310006E00109281008091810082608093810024
:102320008091810081608093810080918000816034
:10233000809380008091B10084608093B10080918F
:10234000B00081608093B00080917A0084608093B7
:102350007A0080917A00826080937A0080917A007E
:10236000816080937A0080917A00806880937A00FF
:102370001092C10068EB7BE080E090E00E94F901E0
:1023800080919601811111C085E891E00E94FE10B4
:10239000109295011092940184E191E0909386014E
:1023A0008093850181E08093960185E891E00E9409
:1023B0005F008091AF01811111C08EE991E00E9410
:1023C000FE101092AE011092AD0186E291E0909362
:1023D0009F0180939E0181E08093AF018EE991E09F
:1023E0000E945F008091C801811111C087EB91E0CC
:1023F0000E94FE101092C7011092C60188E391E07E
:102400009093B8018093B70181E08093C80187EB76
:1024100091E00E945F008091E101811111C080ED87
:1024200091E00E94FE101092E0011092DF018AE418
:1024300091E09093D1018093D00181E08093E101FC
:1024400080ED91E00E945F008091FA01811111C03E
:1024500089EE91E00E94FE101092F9011092F801AD
:102460008CE591E09093EA018093E90181E080930B
:10247000FA0189EE91E00E945F00809113028111C0
:1024800011C082E092E00E94FE101092120210929F
:1024900011028EE691E0909303028093020281E0A4
:1024A0008093130282E092E00E945F0080E68093B6
:1024B000D902C091E602D091E702209789F08A8183
:1024C0009B81009749F02D853E85B901660F771FE6
:1024D000620F731F0E949D000C80DD81C02DEDCF27
:1024E0008091D9020E94CE0060E177E280E090E026
:1024F0000E94F901CBE1D2E08FECE82E82E0F82EC9
:102500001FEF188219831A838091D9020E94CE008E
:102510006CE271E080E090E00E94F9012396EC16F5
:10252000FD0679F7C0E0D0E02097F1F30E940000AB
:10253000FBCFE9EDF2E08FEF8083128211821486E7
:1025400013868FEF9FEFDC0187839087A187B28787
:102550000895DB018F939F930E941513BF91AF9154
:10256000A29F800D911DA39F900DB29F900D1124ED
:10257000089597FB072E16F4009407D077FD09D035
:102580000E94201307FC05D03EF4909581959F4F43
:102590000895709561957F4F0895A1E21A2EAA1BA8
:1025A000BB1BFD010DC0AA1FBB1FEE1FFF1FA21703
:1025B000B307E407F50720F0A21BB30BE40BF50B00
:1025C000661F771F881F991F1A9469F76095709589
:1025D000809590959B01AC01BD01CF010895052E1A
:1025E00097FB1EF400940E94061357FD07D00E942B
:1025F000CD1207FC03D04EF40C9406135095409571
:10260000309521953F4F4F4F5F4F0895909580959E
:10261000709561957F4F8F4F9F4F08950E943A1399
:10262000B7FF0895821B930B08950E943A13A59F4C
:10263000900DB49F900DA49F800D911D11240895BD
:10264000AA1BBB1B51E107C0AA1FBB1FA617B707D8
:1026500010F0A61BB70B881F991F5A95A9F78095F4
:102660009095BC01CD010895EE0FFF1F0590F491E8
:10267000E02D0994A29FB001B39FC001A39F700DEC
:10268000811D1124911DB29F700D811D1124911D7A
:10269000089581E090E0F8940C944E13F894FFCFE5
:1026A000000000002B112B112B11DA10D610D310C3
:1026B0000000000090104C10CE04DA10D610CB04AD
:1026C00081020000000090104C101A07DA10D6109A
:1026D000CB04D0040000000090104C106609DA1002
:1026E000D610CB041C070000000090104C10B20B59
:1026F000DA10D610CB0468090000000090104C10CE
:10270000FE0DDA10D610CB04B40B000000009010C0
:0C2710004C104A10DA10D610CB04000E5A
:00000001FF
