:100000000C9455000C947D000C947D000C947D00A4
:100010000C947D000C947D000C947D000C947D006C
:100020000C947D000C947D000C947D000C947D005C
:100030000C947D000C947D000C947D000C947D004C
:100040000C944A110C947D000C947D000C947D005E
:100050000C947D000C947D000C947D000C947D002C
:100060000C947D000C947D00000000000000330023
:1000700000006600000099000000CC000000FF00B6
:100080000033FF000066FF000099FF0000CCFF0076
:1000900000FFFF0033FFFF0066FFFF0099FFFF0036
:1000A000CCFFFF00FFFFFF00F91211241FBECFEFAE
:1000B000D8E0DEBFCDBF11E0A0E0B1E0E8EBF8E2B0
:1000C00002C005900D92A238B107D9F723E0A2E84B
:1000D000B1E001C01D92A239B207E1F710E0C5E519
:1000E000D0E004C02197FE010E944F14C435D1070F
:1000F000C9F70E9494110C945A140C940000BF92FA
:10010000CF92DF92EF92FF920F931F93CF93DF93E3
:1001100000D01F92CDB7DEB7FC01A081B18112964D
:10012000CD90DC9019821A821B827C0186E0E80E59
:10013000F11C10E000E0D7012D917D01222321F177
:100140001296BC90BB2001F130E050E040E02F5F00
:100150003F4F4F4F5F4FAFEFB0E00E94CC139B017A
:10016000AC018B2D90E0B0E0A0E0BC01CD016F5F51
:100170007F4F8F4F9F4F0E941014A1E0B0E0AC0F53
:10018000BD1FA00FB11F8C930F5F1F4F03301105D0
:1001900091F645855685628173819E012F5F3F4FA1
:1001A000CF01F60109950F900F900F90DF91CF913D
:1001B0001F910F91FF90EF90DF90CF90BF90089527
:1001C0009C018091900390919103FC012150310991
:1001D00030F0309739F00480F581E02DF7CF30977B
:1001E00009F0CF010895CF93DF93EC01E881F98105
:1001F0000480F581E02D09958FEC92E09B838A8342
:100200008CE390E09E878D87E881F9810284F385F5
:10021000E02DCE010995009701F19C0150E040E0EE
:1002200060E472E48FE090E00E94AD138091860359
:1002300090918703A0918803B09189038217930757
:10024000A407B50710F4DA01C901809386039093DF
:100250008703A0938803B0938903CE01DF91CF91E8
:10026000089520E0DC0160FF03C001C02D932D93B1
:100270006250E0F77040D0F708953FB7F89480914E
:100280008C0190918D01A0918E01B0918F0126B5C6
:10029000A89B05C02F3F19F00196A11DB11D3FBFBE
:1002A000BA2FA92F982F8827BC01CD01620F711D8D
:1002B000811D911D42E0660F771F881F991F4A9587
:1002C000D1F708950F931F93CF93DF932091860169
:1002D0002F5F322F37703093860120FF2BC020E82C
:1002E00031FD2064347009F02062205FFC01EC01D4
:1002F000239600E011E06485662329F070E0C801D0
:100300000E9420146F5F6187322F369F030E30E00A
:10031000311D1124311110C01682662311F0615075
:1003200061873196EC17FD0731F7DF91CF911F916F
:100330000F91089520E0D4CF31503683EECFCF9384
:10034000DF93EC010E943D0179836883DF91CF91B7
:100350000895CF93DF93EC010E943D0128813981FC
:10036000621B730B6A307105B8F3DF91CF9108956A
:100370004F925F926F927F928F92AF92BF92CF9285
:10038000DF92EF920F931F93CF93DF93EB010F96C2
:100390002C010E94A901F894E881F9817BB1706277
:1003A0006BB16F7D6BB9CA848F812C2D281B822F76
:1003B0002F83BF846A807B801D850C85DE841F5F50
:1003C0000F5FD3949E813885A984EB844181D3014A
:1003D00020E0C32F522F322F3181442788943111CE
:1003E000380F08F43FEF8195889410FD430F47952F
:1003F000889411FD430F4795889412FD430F47954C
:10040000889413FD430F4795889414FD430F479537
:10041000889415FD430F4795889416FD430F479523
:10042000889417FD430F47958894232F1111242F8B
:100430008C0D422F002C7BB900C047FF6BB9308177
:100440002227889400C000C0002C6BB93111390FED
:1004500000C0002C7BB900C046FF6BB908F43FEF29
:100460009195889400C000C0002C6BB900FD230F4B
:1004700000C0002C7BB900C045FF6BB9279588945C
:1004800001FD230F00C000C0002C6BB92795889494
:1004900000C0002C7BB900C044FF6BB902FD230FE4
:1004A0002795889400C000C0002C6BB903FD230F72
:1004B00000C0002C7BB900C043FF6BB9279588941E
:1004C00004FD230F00C000C0002C6BB92795889451
:1004D00000C0002C7BB900C042FF6BB905FD230FA3
:1004E0002795889400C000C0002C6BB906FD230F2F
:1004F00000C0002C7BB900C041FF6BB927958894E0
:1005000007FD230F00C000C0002C6BB9279588940D
:1005100000C0002C7BB900C040FF6BB9432F011114
:10052000422F9A0D00C000C0002C6BB900C000C063
:10053000002C7BB900C047FF6BB932812227889419
:1005400000C000C0002C6BB931113C0F00C0002C62
:100550007BB900C046FF6BB908F43FEFEB0DF11D0E
:1005600000C000C0002C6BB9D0FC230F00C0002CD1
:100570007BB900C045FF6BB927958894D1FC230F48
:1005800000C000C0002C6BB92795889400C0002CD7
:100590007BB900C044FF6BB9D2FC230F2795889428
:1005A00000C000C0002C6BB9D3FC230F00C0002C8E
:1005B0007BB900C043FF6BB927958894D4FC230F07
:1005C00000C000C0002C6BB92795889400C0002C97
:1005D0007BB900C042FF6BB9D5FC230F27958894E7
:1005E00000C000C0002C6BB9D6FC230F00C0002C4B
:1005F0007BB900C041FF6BB927958894D7FC230FC6
:1006000000C000C0002C6BB92795889400C0002C56
:100610007BB900C040FF6BB9432FD110422FC19569
:1006200000C000C0002C6BB9CE0D00C000C07BB96B
:1006300000C047FF6BB931812227889400C000C0F9
:10064000002C6BB93111380F00C0002C7BB900C0F1
:1006500046FF6BB908F43FEF8195889400C000C055
:10066000002C6BB910FD230F00C0002C7BB900C01B
:1006700045FF6BB92795889411FD230F00C000C07A
:10068000002C6BB92795889400C0002C7BB900C062
:1006900044FF6BB912FD230F2795889400C000C05A
:1006A000002C6BB913FD230F00C0002C7BB900C0D8
:1006B00043FF6BB92795889414FD230F00C000C039
:1006C000002C6BB92795889400C0002C7BB900C022
:1006D00042FF6BB915FD230F2795889400C000C019
:1006E000002C6BB916FD230F00C0002C7BB900C095
:1006F00041FF6BB92795889417FD230F00C000C0F8
:10070000002C6BB92795889400C0002C7BB900C0E1
:1007100040FF6BB9432F1111422F8C0D00C000C058
:10072000002C6BB9119709F086CE20EE31E0D30191
:100730000E943414DC01CB01F4E0B695A79597959F
:100740008795FA95D1F730E020E0B901EAE96E9E8D
:10075000060C611D7E9E600D711D1124670D711DBB
:10076000860F971FA11DB11D893E43E09407A10587
:10077000B10508F434C0885E9340A109B10942E094
:10078000B695A795979587954A95D1F747E0849FA9
:10079000080E211D949F200D311D1124290F311D9C
:1007A0006091850170E0860F971F820F931F409123
:1007B00088015091890160918A0170918B01292FE4
:1007C0003327420F531F611D711D409388015093C1
:1007D000890160938A0170938B01809385017894DD
:1007E000C201DF91CF911F910F91EF90DF90CF90D9
:1007F000BF90AF908F907F906F905F904F900C94D0
:100800009F0180E991E00895559A08954F925F9273
:100810006F927F928F92AF92BF92CF92DF92EF92C0
:100820000F931F93CF93DF93EB010F962C010E9440
:10083000A901F894E881F9817BB170646BB16F7B99
:100840006BB9CA848F812C2D281B822F2F83BF84E4
:100850006A807B801D850C85DE841F5F0F5FD394CB
:100860009E813885A984EB844181D30120E0C32F88
:10087000522F322F3181442788943111380F08F4D8
:100880003FEF8195889410FD430F4795889411FDA3
:10089000430F4795889412FD430F4795889413FDA5
:1008A000430F4795889414FD430F4795889415FD91
:1008B000430F4795889416FD430F4795889417FD7D
:1008C000430F47958894232F1111242F8C0D422F0D
:1008D000002C7BB900C047FF6BB930812227889478
:1008E00000C000C0002C6BB93111390F00C0002CC2
:1008F0007BB900C046FF6BB908F43FEF919588942F
:1009000000C000C0002C6BB900FD230F00C0002CFC
:100910007BB900C045FF6BB92795889401FD230F73
:1009200000C000C0002C6BB92795889400C0002C33
:100930007BB900C044FF6BB902FD230F2795889453
:1009400000C000C0002C6BB903FD230F00C0002CB9
:100950007BB900C043FF6BB92795889404FD230F32
:1009600000C000C0002C6BB92795889400C0002CF3
:100970007BB900C042FF6BB905FD230F2795889412
:1009800000C000C0002C6BB906FD230F00C0002C76
:100990007BB900C041FF6BB92795889407FD230FF1
:1009A00000C000C0002C6BB92795889400C0002CB3
:1009B0007BB900C040FF6BB9432F0111422F9A0D44
:1009C00000C000C0002C6BB900C000C0002C7BB977
:1009D00000C047FF6BB932812227889400C000C055
:1009E000002C6BB931113C0F00C0002C7BB900C04A
:1009F00046FF6BB908F43FEFEB0DF11D00C000C0DE
:100A0000002C6BB9D0FC230F00C0002C7BB900C0B8
:100A100045FF6BB927958894D1FC230F00C000C017
:100A2000002C6BB92795889400C0002C7BB900C0BE
:100A300044FF6BB9D2FC230F2795889400C000C0F7
:100A4000002C6BB9D3FC230F00C0002C7BB900C075
:100A500043FF6BB927958894D4FC230F00C000C0D6
:100A6000002C6BB92795889400C0002C7BB900C07E
:100A700042FF6BB9D5FC230F2795889400C000C0B6
:100A8000002C6BB9D6FC230F00C0002C7BB900C032
:100A900041FF6BB927958894D7FC230F00C000C095
:100AA000002C6BB92795889400C0002C7BB900C03E
:100AB00040FF6BB9432FD110422FC19500C000C039
:100AC000002C6BB9CE0D00C000C07BB900C047FF41
:100AD0006BB931812227889400C000C0002C6BB90B
:100AE0003111380F00C0002C7BB900C046FF6BB934
:100AF00008F43FEF8195889400C000C0002C6BB9CA
:100B000010FD230F00C0002C7BB900C045FF6BB95E
:100B10002795889411FD230F00C000C0002C6BB9ED
:100B20002795889400C0002C7BB900C044FF6BB9A6
:100B300012FD230F2795889400C000C0002C6BB9CC
:100B400013FD230F00C0002C7BB900C043FF6BB91D
:100B50002795889414FD230F00C000C0002C6BB9AA
:100B60002795889400C0002C7BB900C042FF6BB968
:100B700015FD230F2795889400C000C0002C6BB989
:100B800016FD230F00C0002C7BB900C041FF6BB9DC
:100B90002795889417FD230F00C000C0002C6BB967
:100BA0002795889400C0002C7BB900C040FF6BB92A
:100BB000432F1111422F8C0D00C000C0002C6BB9C7
:100BC000119709F086CE20EE31E0D3010E94341453
:100BD000DC01CB01F4E0B695A79597958795FA953A
:100BE000D1F730E020E0B901EAE96E9E060C611D04
:100BF0007E9E600D711D1124670D711D860F971F5C
:100C0000A11DB11D893E43E09407A105B10508F47B
:100C100034C0885E9340A109B10942E0B695A7951A
:100C2000979587954A95D1F747E0849F080E211D37
:100C3000949F200D311D1124290F311D60918501D4
:100C400070E0860F971F820F931F4091880150918B
:100C5000890160918A0170918B01292F3327420FFE
:100C6000531F611D711D409388015093890160934A
:100C70008A0170938B01809385017894C201DF9182
:100C8000CF911F910F91EF90DF90CF90BF90AF90D9
:100C90008F907F906F905F904F900C949F01569A29
:100CA00008954F925F926F927F928F92AF92BF9210
:100CB000CF92DF92EF920F931F93CF93DF93EB01CD
:100CC0000F962C010E94A901F894E881F9817BB16B
:100CD00070686BB16F776BB9CA848F812C2D281B1C
:100CE000822F2F83BF846A807B801D850C85DE84E4
:100CF0001F5F0F5FD3949E813885A984EB84418167
:100D0000D30120E0C32F522F322F31814427889402
:100D10003111380F08F43FEF8195889410FD430F8F
:100D20004795889411FD430F4795889412FD430F12
:100D30004795889413FD430F4795889414FD430FFE
:100D40004795889415FD430F4795889416FD430FEA
:100D50004795889417FD430F47958894232F1111C9
:100D6000242F8C0D422F002C7BB900C047FF6BB99C
:100D700030812227889400C000C0002C6BB931114B
:100D8000390F00C0002C7BB900C046FF6BB908F4D6
:100D90003FEF9195889400C000C0002C6BB900FD16
:100DA000230F00C0002C7BB900C045FF6BB927950D
:100DB000889401FD230F00C000C0002C6BB927955B
:100DC000889400C0002C7BB900C044FF6BB902FDC1
:100DD000230F2795889400C000C0002C6BB903FD39
:100DE000230F00C0002C7BB900C043FF6BB92795CF
:100DF000889404FD230F00C000C0002C6BB9279518
:100E0000889400C0002C7BB900C042FF6BB905FD7F
:100E1000230F2795889400C000C0002C6BB906FDF5
:100E2000230F00C0002C7BB900C041FF6BB9279590
:100E3000889407FD230F00C000C0002C6BB92795D4
:100E4000889400C0002C7BB900C040FF6BB9432FD1
:100E50000111422F9A0D00C000C0002C6BB900C0D8
:100E600000C0002C7BB900C047FF6BB9328122273C
:100E7000889400C000C0002C6BB931113C0F00C039
:100E8000002C7BB900C046FF6BB908F43FEFEB0DB7
:100E9000F11D00C000C0002C6BB9D0FC230F00C0B6
:100EA000002C7BB900C045FF6BB927958894D1FC15
:100EB000230F00C000C0002C6BB92795889400C098
:100EC000002C7BB900C044FF6BB9D2FC230F2795DF
:100ED000889400C000C0002C6BB9D3FC230F00C065
:100EE000002C7BB900C043FF6BB927958894D4FCD4
:100EF000230F00C000C0002C6BB92795889400C058
:100F0000002C7BB900C042FF6BB9D5FC230F27959D
:100F1000889400C000C0002C6BB9D6FC230F00C021
:100F2000002C7BB900C041FF6BB927958894D7FC92
:100F3000230F00C000C0002C6BB92795889400C017
:100F4000002C7BB900C040FF6BB9432FD110422F5A
:100F5000C19500C000C0002C6BB9CE0D00C000C010
:100F60007BB900C047FF6BB931812227889400C04C
:100F700000C0002C6BB93111380F00C0002C7BB9B8
:100F800000C046FF6BB908F43FEF8195889400C01C
:100F900000C0002C6BB910FD230F00C0002C7BB9E2
:100FA00000C045FF6BB92795889411FD230F00C041
:100FB00000C0002C6BB92795889400C0002C7BB929
:100FC00000C044FF6BB912FD230F2795889400C021
:100FD00000C0002C6BB913FD230F00C0002C7BB99F
:100FE00000C043FF6BB92795889414FD230F00C000
:100FF00000C0002C6BB92795889400C0002C7BB9E9
:1010000000C042FF6BB915FD230F2795889400C0DF
:1010100000C0002C6BB916FD230F00C0002C7BB95B
:1010200000C041FF6BB92795889417FD230F00C0BE
:1010300000C0002C6BB92795889400C0002C7BB9A8
:1010400000C040FF6BB9432F1111422F8C0D00C01F
:1010500000C0002C6BB9119709F086CE20EE31E06C
:10106000D3010E943414DC01CB01F4E0B695A795BE
:1010700097958795FA95D1F730E020E0B901EAE934
:101080006E9E060C611D7E9E600D711D1124670D04
:10109000711D860F971FA11DB11D893E43E0940766
:1010A000A105B10508F434C0885E9340A109B109D7
:1010B00042E0B695A795979587954A95D1F747E071
:1010C000849F080E211D949F200D311D1124290F8E
:1010D000311D6091850170E0860F971F820F931F6D
:1010E000409188015091890160918A0170918B0132
:1010F000292F3327420F531F611D711D4093880113
:101100005093890160938A0170938B0180938501CC
:101110007894C201DF91CF911F910F91EF90DF90F2
:10112000CF90BF90AF908F907F906F905F904F90D7
:101130000C949F01579A08954F925F926F927F92FD
:101140008F92AF92BF92CF92DF92EF920F931F9345
:10115000CF93DF93EB010F962C010E94A901F89425
:10116000E881F98175B1716065B16E7F65B9CA8436
:101170008F812C2D281B822F2F83BF846A807B8038
:101180001D850C85DE841F5F0F5FD3949E8138859B
:10119000A984EB844181D30120E0C32F522F322F49
:1011A0003181442788943111380F08F43FEF81953D
:1011B000889410FD430F4795889411FD430F479580
:1011C000889412FD430F4795889413FD430F47956C
:1011D000889414FD430F4795889415FD430F479558
:1011E000889416FD430F4795889417FD430F479544
:1011F0008894232F1111242F8C0D422F002C75B9A8
:1012000000C047FF65B930812227889400C000C024
:10121000002C65B93111390F00C0002C75B900C020
:1012200046FF65B908F43FEF9195889400C000C06F
:10123000002C65B900FD230F00C0002C75B900C05B
:1012400045FF65B92795889401FD230F00C000C0B4
:10125000002C65B92795889400C0002C75B900C092
:1012600044FF65B902FD230F2795889400C000C094
:10127000002C65B903FD230F00C0002C75B900C018
:1012800043FF65B92795889404FD230F00C000C073
:10129000002C65B92795889400C0002C75B900C052
:1012A00042FF65B905FD230F2795889400C000C053
:1012B000002C65B906FD230F00C0002C75B900C0D5
:1012C00041FF65B92795889407FD230F00C000C032
:1012D000002C65B92795889400C0002C75B900C012
:1012E00040FF65B9432F0111422F9A0D00C000C085
:1012F000002C65B900C000C0002C75B900C047FFC4
:1013000065B932812227889400C000C0002C65B9DD
:1013100031113C0F00C0002C75B900C046FF65B903
:1013200008F43FEFEB0DF11D00C000C0002C65B9C3
:10133000D0FC230F00C0002C75B900C045FF65B973
:1013400027958894D1FC230F00C000C0002C65B9FC
:101350002795889400C0002C75B900C044FF65B97A
:10136000D2FC230F2795889400C000C0002C65B9DB
:10137000D3FC230F00C0002C75B900C043FF65B932
:1013800027958894D4FC230F00C000C0002C65B9B9
:101390002795889400C0002C75B900C042FF65B93C
:1013A000D5FC230F2795889400C000C0002C65B998
:1013B000D6FC230F00C0002C75B900C041FF65B9F1
:1013C00027958894D7FC230F00C000C0002C65B976
:1013D0002795889400C0002C75B900C040FF65B9FE
:1013E000432FD110422FC19500C000C0002C65B919
:1013F000CE0D00C000C075B900C047FF65B931818E
:101400002227889400C000C0002C65B93111380F24
:1014100000C0002C75B900C046FF65B908F43FEF65
:101420008195889400C000C0002C65B910FD230F81
:1014300000C0002C75B900C045FF65B92795889498
:1014400011FD230F00C000C0002C65B927958894BA
:1014500000C0002C75B900C044FF65B912FD230F10
:101460002795889400C000C0002C65B913FD230F98
:1014700000C0002C75B900C043FF65B9279588945A
:1014800014FD230F00C000C0002C65B92795889477
:1014900000C0002C75B900C042FF65B915FD230FCF
:1014A0002795889400C000C0002C65B916FD230F55
:1014B00000C0002C75B900C041FF65B9279588941C
:1014C00017FD230F00C000C0002C65B92795889434
:1014D00000C0002C75B900C040FF65B9432F111141
:1014E000422F8C0D00C000C0002C65B9119709F087
:1014F00086CE20EE31E0D3010E943414DC01CB0112
:10150000F4E0B695A79597958795FA95D1F730E0D1
:1015100020E0B901EAE96E9E060C611D7E9E600D19
:10152000711D1124670D711D860F971FA11DB11D1F
:10153000893E43E09407A105B10508F434C0885EF4
:101540009340A109B10942E0B695A7959795879573
:101550004A95D1F747E0849F080E211D949F200DE6
:10156000311D1124290F311D6091850170E0860F16
:10157000971F820F931F40918801509189016091BC
:101580008A0170918B01292F3327420F531F611D50
:10159000711D409388015093890160938A01709373
:1015A0008B01809385017894C201DF91CF911F91C7
:1015B0000F91EF90DF90CF90BF90AF908F907F9082
:1015C0006F905F904F900C949F01209A08954F92D6
:1015D0005F926F927F928F92AF92BF92CF92DF9283
:1015E000EF920F931F93CF93DF93EB010F962C0194
:1015F0000E94A901F894E881F9817BB178606BB110
:10160000677F6BB9CA848F812C2D281B822F2F8373
:10161000BF846A807B801D850C85DE841F5F0F5F21
:10162000D3949E813885A984EB844181D30120E045
:10163000C32F522F322F3181442788943111380F14
:1016400008F43FEF8195889410FD430F47958894E7
:1016500011FD430F4795889412FD430F47958894D9
:1016600013FD430F4795889414FD430F47958894C5
:1016700015FD430F4795889416FD430F47958894B1
:1016800017FD430F47958894232F1111242F8C0D9C
:10169000422F002C7BB900C047FF6BB93081222755
:1016A000889400C000C0002C6BB93111390F00C004
:1016B000002C7BB900C046FF6BB908F43FEF919551
:1016C000889400C000C0002C6BB900FD230F00C03F
:1016D000002C7BB900C045FF6BB92795889401FDAC
:1016E000230F00C000C0002C6BB92795889400C060
:1016F000002C7BB900C044FF6BB902FD230F279576
:10170000889400C000C0002C6BB903FD230F00C0FB
:10171000002C7BB900C043FF6BB92795889404FD6A
:10172000230F00C000C0002C6BB92795889400C01F
:10173000002C7BB900C042FF6BB905FD230F279534
:10174000889400C000C0002C6BB906FD230F00C0B8
:10175000002C7BB900C041FF6BB92795889407FD29
:10176000230F00C000C0002C6BB92795889400C0DF
:10177000002C7BB900C040FF6BB9432F0111422FF1
:101780009A0D00C000C0002C6BB900C000C0002C36
:101790007BB900C047FF6BB932812227889400C013
:1017A00000C0002C6BB931113C0F00C0002C7BB97C
:1017B00000C046FF6BB908F43FEFEB0DF11D00C010
:1017C00000C0002C6BB9D0FC230F00C0002C7BB9EB
:1017D00000C045FF6BB927958894D1FC230F00C04A
:1017E00000C0002C6BB92795889400C0002C7BB9F1
:1017F00000C044FF6BB9D2FC230F2795889400C02A
:1018000000C0002C6BB9D3FC230F00C0002C7BB9A7
:1018100000C043FF6BB927958894D4FC230F00C008
:1018200000C0002C6BB92795889400C0002C7BB9B0
:1018300000C042FF6BB9D5FC230F2795889400C0E8
:1018400000C0002C6BB9D6FC230F00C0002C7BB964
:1018500000C041FF6BB927958894D7FC230F00C0C7
:1018600000C0002C6BB92795889400C0002C7BB970
:1018700000C040FF6BB9432FD110422FC19500C06B
:1018800000C0002C6BB9CE0D00C000C07BB900C0F9
:1018900047FF6BB931812227889400C000C0002C1B
:1018A0006BB93111380F00C0002C7BB900C046FF66
:1018B0006BB908F43FEF8195889400C000C0002CFC
:1018C0006BB910FD230F00C0002C7BB900C045FF91
:1018D0006BB92795889411FD230F00C000C0002C20
:1018E0006BB92795889400C0002C7BB900C044FFD9
:1018F0006BB912FD230F2795889400C000C0002CFF
:101900006BB913FD230F00C0002C7BB900C043FF4F
:101910006BB92795889414FD230F00C000C0002CDC
:101920006BB92795889400C0002C7BB900C042FF9A
:101930006BB915FD230F2795889400C000C0002CBB
:101940006BB916FD230F00C0002C7BB900C041FF0E
:101950006BB92795889417FD230F00C000C0002C99
:101960006BB92795889400C0002C7BB900C040FF5C
:101970006BB9432F1111422F8C0D00C000C0002CF9
:101980006BB9119709F086CE20EE31E0D3010E94A9
:101990003414DC01CB01F4E0B695A79597958795B3
:1019A000FA95D1F730E020E0B901EAE96E9E060C25
:1019B000611D7E9E600D711D1124670D711D860FC6
:1019C000971FA11DB11D893E43E09407A105B105F4
:1019D00008F434C0885E9340A109B10942E0B6958D
:1019E000A795979587954A95D1F747E0849F080E6C
:1019F000211D949F200D311D1124290F311D60914F
:101A0000850170E0860F971F820F931F4091880118
:101A10005091890160918A0170918B01292F3327A0
:101A2000420F531F611D711D40938801509389011E
:101A300060938A0170938B01809385017894C20131
:101A4000DF91CF911F910F91EF90DF90CF90BF90DA
:101A5000AF908F907F906F905F904F900C949F010C
:101A6000539A08954F925F926F927F928F92AF92A6
:101A7000BF92CF92DF92EF920F931F93CF93DF939A
:101A8000EB010F962C010E94A901F894E881F981DD
:101A90007BB170616BB16F7E6BB9CA848F812C2D65
:101AA000281B822F2F83BF846A807B801D850C8535
:101AB000DE841F5F0F5FD3949E813885A984EB84F9
:101AC0004181D30120E0C32F522F322F318144278F
:101AD00088943111380F08F43FEF8195889410FDF8
:101AE000430F4795889411FD430F4795889412FD45
:101AF000430F4795889413FD430F4795889414FD31
:101B0000430F4795889415FD430F4795889416FD1C
:101B1000430F4795889417FD430F47958894232FCB
:101B20001111242F8C0D422F002C7BB900C047FFD0
:101B30006BB930812227889400C000C0002C6BB99B
:101B40003111390F00C0002C7BB900C046FF6BB9C2
:101B500008F43FEF9195889400C000C0002C6BB949
:101B600000FD230F00C0002C7BB900C045FF6BB9FE
:101B70002795889401FD230F00C000C0002C6BB98D
:101B80002795889400C0002C7BB900C044FF6BB936
:101B900002FD230F2795889400C000C0002C6BB96C
:101BA00003FD230F00C0002C7BB900C043FF6BB9BD
:101BB0002795889404FD230F00C000C0002C6BB94A
:101BC0002795889400C0002C7BB900C042FF6BB9F8
:101BD00005FD230F2795889400C000C0002C6BB929
:101BE00006FD230F00C0002C7BB900C041FF6BB97C
:101BF0002795889407FD230F00C000C0002C6BB907
:101C00002795889400C0002C7BB900C040FF6BB9B9
:101C1000432F0111422F9A0D00C000C0002C6BB958
:101C200000C000C0002C7BB900C047FF6BB93281F7
:101C30002227889400C000C0002C6BB931113C0FE2
:101C400000C0002C7BB900C046FF6BB908F43FEF21
:101C5000EB0DF11D00C000C0002C6BB9D0FC230FB0
:101C600000C0002C7BB900C045FF6BB92795889454
:101C7000D1FC230F00C000C0002C6BB927958894BD
:101C800000C0002C7BB900C044FF6BB9D2FC230F0D
:101C90002795889400C000C0002C6BB9D3FC230F9B
:101CA00000C0002C7BB900C043FF6BB92795889416
:101CB000D4FC230F00C000C0002C6BB9279588947A
:101CC00000C0002C7BB900C042FF6BB9D5FC230FCC
:101CD0002795889400C000C0002C6BB9D6FC230F58
:101CE00000C0002C7BB900C041FF6BB927958894D8
:101CF000D7FC230F00C000C0002C6BB92795889437
:101D000000C0002C7BB900C040FF6BB9432FD1103D
:101D1000422FC19500C000C0002C6BB9CE0D00C091
:101D200000C07BB900C047FF6BB93181222788947E
:101D300000C000C0002C6BB93111380F00C0002C5E
:101D40007BB900C046FF6BB908F43FEF81958894DA
:101D500000C000C0002C6BB910FD230F00C0002C88
:101D60007BB900C045FF6BB92795889411FD230FFF
:101D700000C000C0002C6BB92795889400C0002CCF
:101D80007BB900C044FF6BB912FD230F27958894DF
:101D900000C000C0002C6BB913FD230F00C0002C45
:101DA0007BB900C043FF6BB92795889414FD230FBE
:101DB00000C000C0002C6BB92795889400C0002C8F
:101DC0007BB900C042FF6BB915FD230F279588949E
:101DD00000C000C0002C6BB916FD230F00C0002C02
:101DE0007BB900C041FF6BB92795889417FD230F7D
:101DF00000C000C0002C6BB92795889400C0002C4F
:101E00007BB900C040FF6BB9432F1111422F8C0DDD
:101E100000C000C0002C6BB9119709F086CE20EEEF
:101E200031E0D3010E943414DC01CB01F4E0B6951B
:101E3000A79597958795FA95D1F730E020E0B901FD
:101E4000EAE96E9E060C611D7E9E600D711D1124D7
:101E5000670D711D860F971FA11DB11D893E43E0BF
:101E60009407A105B10508F434C0885E9340A10928
:101E7000B10942E0B695A795979587954A95D1F710
:101E800047E0849F080E211D949F200D311D1124D1
:101E9000290F311D6091850170E0860F971F820F19
:101EA000931F409188015091890160918A0170913E
:101EB0008B01292F3327420F531F611D711D409342
:101EC00088015093890160938A0170938B018093FC
:101ED00085017894C201DF91CF911F910F91EF900E
:101EE000DF90CF90BF90AF908F907F906F905F907A
:101EF0004F900C949F01549A08950F931F93CF9382
:101F0000DF93CDB7DEB762970FB6F894DEBF0FBE92
:101F1000CDBF8C01F901DC011C968C917A83698319
:101F20005C834B835E834D8390819D8791819E87E7
:101F300092819F878130F1F4CE0101960E94620167
:101F400083E0888B1A8A198AD801ED91FC91048468
:101F5000F585E02DBE016F5F7F4FC8010995629640
:101F60000FB6F894DEBF0FBECDBFDF91CF911F91AA
:101F70000F9108951C861B861A86198618861F8263
:101F8000DFCF0F931F93CF93DF93CDB7DEB7629769
:101F90000FB6F894DEBF0FBECDBF8C01F901DC0196
:101FA0001C968C917A8369835C834B835E834D831B
:101FB00090819D8791819E8792819F878130E9F4EE
:101FC000CE0101960E946201188A1A8A198AD801E4
:101FD000ED91FC910484F585E02DBE016F5F7F4F8C
:101FE000C801099562960FB6F894DEBF0FBECDBF4B
:101FF000DF91CF911F910F9108951C861B861A8641
:10200000198618861F82E0CFF89440E450E090E0F3
:1020100080E020917A0024FFFCCF20917A00206894
:1020200020937A003091780020917900232732277D
:1020300023273250821793070CF4C90141505109EC
:1020400041F77894880F991F880F991F9C012227C8
:10205000232B09F08FEF809384010895CF92DF92B4
:10206000EF92FF920F931F93CF93DF939C01E09128
:102070000001F09101018C01CC96E90165E0E62EAA
:1020800068E0F62E5FE0EE9DB001EF9D700DFE9DC5
:10209000700D1124FB01E75EF94C49916F2F6E0F13
:1020A000659FB0011124471B08F440E0DE01119741
:1020B0004C938C179D0739F779014AE3E40EF11C24
:1020C00053E0C52ED12CD7018C914E917D0150E06B
:1020D000840F952F911D840F951FB6010E94201427
:1020E000D70112966C932E153F0569F745E058E02D
:1020F000E49FC001E59F900DF49F900D1124875E31
:10210000994C9093010180930001890FB7E08B9F58
:10211000C0011124892F9927820F931F20918401D8
:10212000FC012083AFECB2E060EFF80121918F0158
:10213000269F020E20E0211D1124322F32953F7080
:102140002F70E32FEE0FE30FF0E0EA5DFD4F4081CB
:1021500091818281222309F42EC033963F3011F4FD
:10216000E6E2F2E02295207F722F7095479F040EE1
:1021700040E0411D3081329F030E30E0311D430F9E
:10218000392F379F030E30E0311D9181592F529F17
:10219000050E50E0511D932F950F382F379F030EDA
:1021A00030E0311D8281582F529F050E50E0511DA5
:1021B000832F850F11244C9311969C93119712969F
:1021C0008C9312971396C017D10709F0AECFDF9109
:1021D000CF911F910F91FF90EF90DF90CF900895D6
:1021E00090E080E00895FC01858596850895CF9361
:1021F000DF9300D000D000D0CDB7DEB7AB011C829A
:102200001D821E82DC01ED91FC910190F081E02D98
:1022100019821A821B829E012F5F3F4FBE016C5FA5
:102220007F4F099526960FB6F894DEBF0FBECDBF3F
:10223000DF91CF910895FC018AE091E09183808342
:10224000138212828FEF86838783808781878287BC
:10225000838781E084871686158615821482809193
:10226000900390919103892B21F4F0939103E093D3
:102270009003A0918201B0918301109721F01596EF
:10228000FC93EE931497F0938301E09382010895F9
:102290000E9455141F920F920FB60F9211242F9384
:1022A0003F938F939F93AF93BF93809188019091B9
:1022B0008901A0918A01B0918B013091870123E0BF
:1022C000230F2D3758F50196A11DB11D20938701CD
:1022D0008093880190938901A0938A01B0938B0128
:1022E00080918C0190918D01A0918E01B0918F0110
:1022F0000196A11DB11D80938C0190938D01A09337
:102300008E01B0938F01BF91AF919F918F913F91BB
:102310002F910F900FBE0F901F90189526E8230F56
:102320000296A11DB11DD2CF789484B5826084BD80
:1023300084B5816084BD85B5826085BD85B58160C9
:1023400085BD80916E00816080936E001092810047
:102350008091810082608093810080918100816002
:1023600080938100809180008160809380008091C3
:10237000B10084608093B1008091B000816080934F
:10238000B00080917A00846080937A0080917A0016
:10239000826080937A0080917A00816080937A00D5
:1023A00080917A00806880937A001092C1008091B9
:1023B000A101811111C080E991E00E941B111092CE
:1023C000A00110929F018AE191E090939101809386
:1023D000900181E08093A10180E991E00E94F300E7
:1023E0008091BA01811111C089EA91E00E941B110C
:1023F0001092B9011092B8018CE291E09093AA0179
:102400008093A90181E08093BA0189EA91E00E945A
:10241000F3008091D301811111C082EC91E00E9400
:102420001B111092D2011092D1018EE391E0909392
:10243000C3018093C20181E08093D30182EC91E0DB
:102440000E94F3008091EC01811111C08BED91E0AD
:102450000E941B111092EB011092EA0180E591E0BD
:102460009093DC018093DB0181E08093EC018BEDA4
:1024700091E00E94F30080910502811111C084EF68
:1024800091E00E941B11109204021092030282E656
:1024900091E09093F5018093F40181E0809305022F
:1024A00084EF91E00E94F30080911E02811111C01F
:1024B0008DE092E00E941B1110921D0210921C02EE
:1024C00084E791E090930E0280930D0281E0809367
:1024D0001E028DE092E00E94F300C0919003D09123
:1024E0009103209789F08A819B81009749F02D857F
:1024F0003E85B901660F771F620F731F0E9431017D
:102500000C80DD81C02DEDCF88E690E0A6E2B2E040
:1025100026E532E0FC0145915591659174916C93EB
:1025200011965C93119712964C93129704961396FA
:102530002A173B0779F785EE80937A0087E080932E
:102540007E0080E480937C0010E401E4C0E0D0E0F1
:10255000FF24F3940E945513209100013091010152
:10256000C901860F971F909301018093000180910C
:10257000CE02882309F100937C000E94041086E5B6
:1025800092E00E942E1090E080E00E94E0000E9405
:102590007F0082E090E00E94E0000E947F0084E0E3
:1025A00090E00E94E0000E947F001092CE022097EF
:1025B00089F20E940000CECF10937C000E9404108C
:1025C00082E992E00E942E1081E090E00E94E000FB
:1025D0000E947F0083E090E00E94E0000E947F0064
:1025E00085E090E00E94E0000E947F00F092CE0221
:1025F000DECFE3E8F3E08FEF80831282118214864E
:1026000013868FEF9FEFDC0187839087A187B287C6
:1026100008958F929F92AF92BF92CF92DF92EF92E6
:10262000FF92CF93DF93EC01688179818A819B814E
:10263000611571058105910521F464E279ED8BE561
:1026400097E02DE133EF41E050E00E94AD134901E6
:102650005A019B01AC01A7EAB1E40E94CC136B01C3
:102660007C01ACEEB4EFA50194010E94DA13C60E12
:10267000D71EE81EF91EF7FE06C081E0C81AD10871
:10268000E10880E8F80AC882D982EA82FB82C701A1
:10269000B6019F77DF91CF91FF90EF90DF90CF90C1
:1026A000BF90AF909F908F9008958F929F92AF921E
:1026B000BF92CF92DF92EF92FF92609102017091F0
:1026C0000301809104019091050161157105810557
:1026D000910521F464E279ED8BE597E02DE133EF8C
:1026E00041E050E00E94AD1349015A019B01AC0149
:1026F000A7EAB1E40E94CC136B017C01ACEEB4EF0D
:10270000A50194010E94DA13C60ED71EE81EF91E19
:10271000F7FE06C081E0C81AD108E10880E8F80A8F
:10272000C0920201D0920301E0920401F0920501EF
:10273000C701B6019F77FF90EF90DF90CF90BF90D9
:10274000AF909F908F900895609302017093030162
:1027500080930401909305010895052E97FB1EF4C4
:1027600000940E94C41357FD07D00E94DF1307FC9A
:1027700003D04EF40C94C413509540953095219598
:102780003F4F4F4F5F4F089590958095709561959D
:102790007F4F8F4F9F4F08950E940114A59F900D6A
:1027A000B49F900DA49F800D911D11240895B7FF33
:1027B0000C94CC130E94CC13821B930B0895A1E2BE
:1027C0001A2EAA1BBB1BFD010DC0AA1FBB1FEE1FAB
:1027D000FF1FA217B307E407F50720F0A21BB30BF6
:1027E000E40BF50B661F771F881F991F1A9469F772
:1027F00060957095809590959B01AC01BD01CF01CE
:102800000895A29FB001B39FC001A39F700D811DC9
:102810001124911DB29F700D811D1124911D0895E9
:10282000DB018F939F930E94CC13BF91AF91A29F26
:10283000800D911DA39F900DB29F900D11240895BE
:1028400097FB072E16F4009407D077FD09D00E945D
:102850003B1407FC05D03EF4909581959F4F089559
:10286000709561957F4F08950E940114B7FF0895F8
:10287000821B930B0895AA1BBB1B51E107C0AA1F23
:10288000BB1FA617B70710F0A61BB70B881F991F11
:102890005A95A9F780959095BC01CD010895EE0F4A
:1028A000FF1F0590F491E02D099481E090E0F894E9
:0828B0000C945A14F894FFCFB8
:1028B80039050100000000000000481148114811C6
:1028C800F710F310F01000000000C10F7D0F040492
:1028D800F710F3100104B80100000000C10F7D0FCC
:1028E8004F06F710F3100104060400000000C10FA2
:1028F8007D0F9A08F710F31001045106000000003C
:10290800C10F7D0FE50AF710F31001049C080000C1
:102918000000C10F7D0F300DF710F3100104E70A16
:1029280000000000C10F7D0F7B0FF710F3100104AA
:02293800320D5E
:00000001FF
