:100000000C9455000C947D000C947D000C947D00A4
:100010000C947D000C947D000C947D000C947D006C
:100020000C947D000C947D000C947D000C947D005C
:100030000C947D000C947D000C947D000C947D004C
:100040000C94BE140C947D000C947D000C947D00E7
:100050000C947D000C947D000C947D000C947D002C
:100060000C947D000C947D00AB0055007C00840056
:100070004B00B5001B00E5000017E8000047B80082
:100080000077AB0000ABAB000055AB000022DD00F9
:100090000E00F2003E00C20071008F00A1005F0060
:1000A000D0002F00F9070000AA1611241FBECFEFC1
:1000B000D8E0DEBFCDBF11E0A0E0B1E0E2ECFEE2AF
:1000C00002C005900D92A23BB107D9F723E0A2EB45
:1000D000B1E001C01D92A034B207E1F710E0C5E520
:1000E000D0E004C02197FE010E945417C435D10707
:1000F000C9F70E9408150C945F170C940000382F64
:10010000ECE8F2E02081239F020E20E0211D2083F5
:100110002181239F020E20E0211D21832281239F24
:10012000020E20E0211D22831124339683E0E03467
:10013000F80741F70895CF93DF93EC01E881F98147
:100140000480F581E02D09958CE892E09B838A83F9
:100150008CE390E09E878D87E881F9810284F385A6
:10016000E02DCE010995009701F19C0150E040E09F
:1001700060E472E48FE090E00E94141780917C02AA
:1001800090917D02A0917E02B0917F028217930729
:10019000A407B50710F4DA01C90180937C0290939B
:1001A0007D02A0937E02B0937F02CE01DF91CF91BA
:1001B00008953FB7F8948091BB019091BC01A09144
:1001C000BD01B091BE0126B5A89B05C02F3F19F017
:1001D0000196A11DB11D3FBFBA2FA92F982F8827C7
:1001E000BC01CD01620F711D811D911D42E0660FA2
:1001F000771F881F991F4A95D1F708958F929F9274
:10020000AF92BF92CF92DF92EF92FF924B015C01CF
:100210000E94D9006B017C010E94D9006C197D09F4
:100220008E099F09683E734081059105A8F321E07E
:10023000821A9108A108B10888EEC80E83E0D81E82
:10024000E11CF11C81149104A104B10429F7FF9071
:10025000EF90DF90CF90BF90AF909F908F900895D8
:100260002FB7F8946091B7017091B8018091B901EE
:100270009091BA012FBF08954F925F926F927F9233
:100280009F92AF92BF92CF92DF92EF92FF920F9325
:100290001F93CF93DF9300D01F92CDB7DEB7F82E18
:1002A00080917C0290917D02A0917E02B0917F02AC
:1002B000892B8A2B8B2BD9F00E94D90000918802C0
:1002C0001091890220918A0230918B02601B710B80
:1002D000820B930B00917C0210917D0220917E0293
:1002E00030917F026017710782079307C8F20E945E
:1002F000D900609388027093890280938A02909358
:100300008B02E0918402F0918502309759F0409180
:1003100080025091810260918202709183028F2D40
:100320000995F82E00918602109187024F2C512CCE
:10033000712C612C0115110509F45EC0D8011C96C1
:10034000EC901C9780917A0290917B028436910503
:1003500010F41C961C92D801ED91FC91A280B38000
:1003600019821A821B82FF2089F1F8013696D12C5E
:10037000C12C2191222319F19280992001F130E0C2
:1003800050E040E02F5F3F4F4F4F5F4FC301B2013E
:100390000E94BA169B01AC01892D90E0B0E0A0E06C
:1003A000BC01CD016F5F7F4F8F4F9F4F0E94BA16E8
:1003B000A1E0B0E0AC0FBD1FAC0DBD1D8C93BFEF35
:1003C000CB1ADB0A83E0C816D10499F6D8011D9632
:1003D0004D915C911E9712966D917C919E012F5FBD
:1003E0003F4FC801F5010995D8011C96EC921C9766
:1003F00014960D911C919ECF809177029091780276
:100400008C010F5F1F4F109378020093770249977A
:10041000B4F10E943001C0907302D0907402E09059
:100420007502F09076029B01AC012C193D094E0932
:100430005F0921F421E030E040E050E088EE93E0F5
:10044000089FB001099F700D189F700D1124072E91
:10045000000C880B990B0E94F21630937B022093BC
:100460007A0210927802109277020E943001609313
:1004700073027093740280937502909376020F90CA
:100480000F900F90DF91CF911F910F91FF90EF9000
:10049000DF90CF90BF90AF909F907F906F905F90D4
:1004A0004F9008951F93DC01FB017C9111964C91B4
:1004B000119712961C91972F990F990F990F35E567
:1004C000292F239F020E20E0211D1124822F672F48
:1004D0006074572F507277FD6FC061115BC051116E
:1004E00005C0922F9095892F90E004C025E5280F34
:1004F00090E08BEA4F3F09F424C0442309F47DC007
:10050000882331F0382F349F030E30E0311D832FC4
:10051000222321F0249F020E20E0211D992331F097
:10052000392F349F030E30E0311D932F1124342FC7
:100530003095339F030E30E0311D1124830F230FBC
:10054000930F1F3F09F421C030E0112321F0119FC8
:10055000312D09F03F5F332309F453C0882331F074
:10056000482F439F040E40E0411D842F222321F099
:10057000239F020E20E0211D992331F0492F439F34
:10058000040E40E0411D942F112480832183928327
:100590001F91089551110BC0392F2AEA329F030E83
:1005A00030E0311D11249BEA931B280F9CCF90E073
:1005B0002095982F80E09ECF611112C051110CC080
:1005C000392F2AEA329F030E30E0311D11242BEA25
:1005D000231B95E5930FEECF922F909520E08ACFC5
:1005E000511106C025E5280F9BEA981B822FF6CFF4
:1005F0002AEA280F90E0932FF8CF9FEF2FEF8FEF8D
:10060000A0CF90E020E080E0C0CF0F931F93CF9366
:10061000DF932091B5012F5F322F37703093B501F2
:1006200020FF2BC020E831FD2064347009F02062E7
:10063000205FFC01EC01239600E011E06485662355
:1006400029F070E0C8010E94DE166F5F6187322FCB
:10065000369F030E30E0311D1124311110C0168277
:10066000662311F0615061873196EC17FD0731F771
:10067000DF91CF911F910F91089520E0D4CF315099
:100680003683EECFCF93DF93EC010E94D9007983BC
:100690006883DF91CF910895CF93DF93EC010E949F
:1006A000D90028813981621B730B6A307105B8F358
:1006B000DF91CF9108954F925F926F927F928F92C8
:1006C0009F92AF92CF92DF92EF92FF920F931F9380
:1006D000CF93DF93EB010F962C010E944C03F8940B
:1006E000E881F9810BB100621BB11F7D1BB9CA847F
:1006F0008F814C2D481B842F4F839F846A807B8081
:10070000FD84EC84DE84F394E394D3949E81388555
:100710008984AB844181D30120E0622F722F7181E3
:10072000442788947111780F08F47FEF819588949D
:10073000F0FC470F47958894F1FC470F4795889444
:10074000F2FC470F47958894F3FC470F4795889430
:10075000F4FC470F47958894F5FC470F479588941C
:10076000F6FC470F47958894F7FC470F4795889408
:10077000272FF110242F8C0D422F002C0BB900C015
:1007800047FF1BB970812227889400C000C0002C4D
:100790001BB97111790F00C0002C0BB900C046FFC6
:1007A0001BB908F47FEF9195889400C000C0002C1D
:1007B0001BB9E0FC270F00C0002C0BB900C045FF9F
:1007C0001BB927958894E1FC270F00C000C0002CBE
:1007D0001BB92795889400C0002C0BB900C044FFBA
:1007E0001BB9E2FC270F2795889400C000C0002C9D
:1007F0001BB9E3FC270F00C0002C0BB900C043FF5E
:100800001BB927958894E4FC270F00C000C0002C7A
:100810001BB92795889400C0002C0BB900C042FF7B
:100820001BB9E5FC270F2795889400C000C0002C59
:100830001BB9E6FC270F00C0002C0BB900C041FF1C
:100840001BB927958894E7FC270F00C000C0002C37
:100850001BB92795889400C0002C0BB900C040FF3D
:100860001BB9472FE110422F980D00C000C0002C8B
:100870001BB900C000C0002C0BB900C047FF1BB95A
:1008800072812227889400C000C0002C1BB971110E
:10089000730F00C0002C0BB900C046FF1BB908F451
:1008A0007FEFE90DF11D00C000C0002C1BB9D0FC8A
:1008B000270F00C0002C0BB900C045FF1BB92795BE
:1008C0008894D1FC270F00C000C0002C1BB92795CD
:1008D000889400C0002C0BB900C044FF1BB9D2FCA7
:1008E000270F2795889400C000C0002C1BB9D3FCAB
:1008F000270F00C0002C0BB900C043FF1BB9279580
:100900008894D4FC270F00C000C0002C1BB9279589
:10091000889400C0002C0BB900C042FF1BB9D5FC65
:10092000270F2795889400C000C0002C1BB9D6FC67
:10093000270F00C0002C0BB900C041FF1BB9279541
:100940008894D7FC270F00C000C0002C1BB9279546
:10095000889400C0002C0BB900C040FF1BB9472F82
:10096000D110422F319500C000C0002C1BB93A0DA8
:1009700000C000C00BB900C047FF1BB9718122271E
:10098000889400C000C0002C1BB97111780F00C002
:10099000002C0BB900C046FF1BB908F47FEF81950E
:1009A000889400C000C0002C1BB9F0FC270F00C0C9
:1009B000002C0BB900C045FF1BB927958894F1FCAA
:1009C000270F00C000C0002C1BB92795889400C0D9
:1009D000002C0BB900C044FF1BB9F2FC270F279570
:1009E000889400C000C0002C1BB9F3FC270F00C086
:1009F000002C0BB900C043FF1BB927958894F4FC69
:100A0000270F00C000C0002C1BB92795889400C098
:100A1000002C0BB900C042FF1BB9F5FC270F27952E
:100A2000889400C000C0002C1BB9F6FC270F00C042
:100A3000002C0BB900C041FF1BB927958894F7FC27
:100A4000270F00C000C0002C1BB92795889400C058
:100A5000002C0BB900C040FF1BB9472FF110422FEB
:100A60008C0D00C000C0002C1BB9119709F086CE78
:100A700020EE31E0D3010E944217DC01CB01F4E00B
:100A8000B695A79597958795FA95D1F730E020E030
:100A9000B901EAE96E9E060C611D7E9E600D711D16
:100AA0001124670D711D860F971FA11DB11D893E71
:100AB00043E09407A105B10508F434C0885E934073
:100AC000A109B10942E0B695A795979587954A95F2
:100AD000D1F747E0849F080E211D949F200D311D02
:100AE0001124290F311D6091B40170E0860F971F0A
:100AF000820F931F4091B7015091B8016091B901E5
:100B00007091BA01292F3327420F531F611D711DA8
:100B10004093B7015093B8016093B9017093BA0143
:100B20008093B4017894C201DF91CF911F910F910E
:100B3000FF90EF90DF90CF90AF909F908F907F903D
:100B40006F905F904F900C94420380E991E008957C
:100B5000559A08954F925F926F927F928F929F92D3
:100B6000AF92CF92DF92EF92FF920F931F93CF93AA
:100B7000DF93EB010F962C010E944C03F894E8815F
:100B8000F9810BB100641BB11F7B1BB9CA848F8133
:100B90004C2D481B842F4F839F846A807B80FD846B
:100BA000EC84DE84F394E394D3949E813885898425
:100BB000AB844181D30120E0622F722F71814427E1
:100BC00088947111780F08F47FEF81958894F0FC78
:100BD000470F47958894F1FC470F47958894F2FC9E
:100BE000470F47958894F3FC470F47958894F4FC8A
:100BF000470F47958894F5FC470F47958894F6FC76
:100C0000470F47958894F7FC470F47958894272FFF
:100C1000F110242F8C0D422F002C0BB900C047FF80
:100C20001BB970812227889400C000C0002C1BB91A
:100C30007111790F00C0002C0BB900C046FF1BB921
:100C400008F47FEF9195889400C000C0002C1BB978
:100C5000E0FC270F00C0002C0BB900C045FF1BB9FA
:100C600027958894E1FC270F00C000C0002C1BB919
:100C70002795889400C0002C0BB900C044FF1BB915
:100C8000E2FC270F2795889400C000C0002C1BB9F8
:100C9000E3FC270F00C0002C0BB900C043FF1BB9B9
:100CA00027958894E4FC270F00C000C0002C1BB9D6
:100CB0002795889400C0002C0BB900C042FF1BB9D7
:100CC000E5FC270F2795889400C000C0002C1BB9B5
:100CD000E6FC270F00C0002C0BB900C041FF1BB978
:100CE00027958894E7FC270F00C000C0002C1BB993
:100CF0002795889400C0002C0BB900C040FF1BB999
:100D0000472FE110422F980D00C000C0002C1BB9E6
:100D100000C000C0002C0BB900C047FF1BB9728196
:100D20002227889400C000C0002C1BB97111730FDA
:100D300000C0002C0BB900C046FF1BB908F47FEFC0
:100D4000E90DF11D00C000C0002C1BB9D0FC270F1D
:100D500000C0002C0BB900C045FF1BB92795889433
:100D6000D1FC270F00C000C0002C1BB92795889428
:100D700000C0002C0BB900C044FF1BB9D2FC270FE8
:100D80002795889400C000C0002C1BB9D3FC270F06
:100D900000C0002C0BB900C043FF1BB927958894F5
:100DA000D4FC270F00C000C0002C1BB927958894E5
:100DB00000C0002C0BB900C042FF1BB9D5FC270FA7
:100DC0002795889400C000C0002C1BB9D6FC270FC3
:100DD00000C0002C0BB900C041FF1BB927958894B7
:100DE000D7FC270F00C000C0002C1BB927958894A2
:100DF00000C0002C0BB900C040FF1BB9472FD11019
:100E0000422F319500C000C0002C1BB93A0D00C024
:100E100000C00BB900C047FF1BB97181222788941D
:100E200000C000C0002C1BB97111780F00C0002C4D
:100E30000BB900C046FF1BB908F47FEF8195889479
:100E400000C000C0002C1BB9F0FC270F00C0002C14
:100E50000BB900C045FF1BB927958894F1FC270FFB
:100E600000C000C0002C1BB92795889400C0002C3E
:100E70000BB900C044FF1BB9F2FC270F27958894DB
:100E800000C000C0002C1BB9F3FC270F00C0002CD1
:100E90000BB900C043FF1BB927958894F4FC270FBA
:100EA00000C000C0002C1BB92795889400C0002CFE
:100EB0000BB900C042FF1BB9F5FC270F279588949A
:100EC00000C000C0002C1BB9F6FC270F00C0002C8E
:100ED0000BB900C041FF1BB927958894F7FC270F79
:100EE00000C000C0002C1BB92795889400C0002CBE
:100EF0000BB900C040FF1BB9472FF110422F8C0DDA
:100F000000C000C0002C1BB9119709F086CE20EE5E
:100F100031E0D3010E944217DC01CB01F4E0B69529
:100F2000A79597958795FA95D1F730E020E0B9011C
:100F3000EAE96E9E060C611D7E9E600D711D1124F6
:100F4000670D711D860F971FA11DB11D893E43E0DE
:100F50009407A105B10508F434C0885E9340A10947
:100F6000B10942E0B695A795979587954A95D1F72F
:100F700047E0849F080E211D949F200D311D1124F0
:100F8000290F311D6091B40170E0860F971F820F09
:100F9000931F4091B7015091B8016091B9017091D0
:100FA000BA01292F3327420F531F611D711D409332
:100FB000B7015093B8016093B9017093BA0180935F
:100FC000B4017894C201DF91CF911F910F91FF90EE
:100FD000EF90DF90CF90AF909F908F907F906F9029
:100FE0005F904F900C944203569A08954F925F92EF
:100FF0006F927F928F929F92AF92CF92DF92EF92F9
:10100000FF920F931F93CF93DF93EB010F962C0169
:101010000E944C03F894E881F9810BB100681BB180
:101020001F771BB9CA848F814C2D481B842F4F8397
:101030009F846A807B80FD84EC84DE84F394E39457
:10104000D3949E8138858984AB844181D30120E08B
:10105000622F722F7181442788947111780F08F4E0
:101060007FEF81958894F0FC470F47958894F1FCB9
:10107000470F47958894F2FC470F47958894F3FCF7
:10108000470F47958894F4FC470F47958894F5FCE3
:10109000470F47958894F6FC470F47958894F7FCCF
:1010A000470F47958894272FF110242F8C0D422F3E
:1010B000002C0BB900C047FF1BB970812227889410
:1010C00000C000C0002C1BB97111790F00C0002CAA
:1010D0000BB900C046FF1BB908F47FEF91958894C7
:1010E00000C000C0002C1BB9E0FC270F00C0002C82
:1010F0000BB900C045FF1BB927958894E1FC270F69
:1011000000C000C0002C1BB92795889400C0002C9B
:101110000BB900C044FF1BB9E2FC270F2795889448
:1011200000C000C0002C1BB9E3FC270F00C0002C3E
:101130000BB900C043FF1BB927958894E4FC270F27
:1011400000C000C0002C1BB92795889400C0002C5B
:101150000BB900C042FF1BB9E5FC270F2795889407
:1011600000C000C0002C1BB9E6FC270F00C0002CFB
:101170000BB900C041FF1BB927958894E7FC270FE6
:1011800000C000C0002C1BB92795889400C0002C1B
:101190000BB900C040FF1BB9472FE110422F980D3B
:1011A00000C000C0002C1BB900C000C0002C0BB94F
:1011B00000C047FF1BB972812227889400C000C07D
:1011C000002C1BB97111730F00C0002C0BB900C0AB
:1011D00046FF1BB908F47FEFE90DF11D00C000C008
:1011E000002C1BB9D0FC270F00C0002C0BB900C08D
:1011F00045FF1BB927958894D1FC270F00C000C07C
:10120000002C1BB92795889400C0002C0BB900C096
:1012100044FF1BB9D2FC270F2795889400C000C05B
:10122000002C1BB9D3FC270F00C0002C0BB900C049
:1012300043FF1BB927958894D4FC270F00C000C03A
:10124000002C1BB92795889400C0002C0BB900C056
:1012500042FF1BB9D5FC270F2795889400C000C01A
:10126000002C1BB9D6FC270F00C0002C0BB900C006
:1012700041FF1BB927958894D7FC270F00C000C0F9
:10128000002C1BB92795889400C0002C0BB900C016
:1012900040FF1BB9472FD110422F319500C000C02D
:1012A000002C1BB93A0D00C000C00BB900C047FFAD
:1012B0001BB971812227889400C000C0002C1BB983
:1012C0007111780F00C0002C0BB900C046FF1BB98C
:1012D00008F47FEF8195889400C000C0002C1BB9F2
:1012E000F0FC270F00C0002C0BB900C045FF1BB954
:1012F00027958894F1FC270F00C000C0002C1BB973
:101300002795889400C0002C0BB900C044FF1BB97E
:10131000F2FC270F2795889400C000C0002C1BB951
:10132000F3FC270F00C0002C0BB900C043FF1BB912
:1013300027958894F4FC270F00C000C0002C1BB92F
:101340002795889400C0002C0BB900C042FF1BB940
:10135000F5FC270F2795889400C000C0002C1BB90E
:10136000F6FC270F00C0002C0BB900C041FF1BB9D1
:1013700027958894F7FC270F00C000C0002C1BB9EC
:101380002795889400C0002C0BB900C040FF1BB902
:10139000472FF110422F8C0D00C000C0002C1BB94C
:1013A000119709F086CE20EE31E0D3010E9442175A
:1013B000DC01CB01F4E0B695A79597958795FA9552
:1013C000D1F730E020E0B901EAE96E9E060C611D1C
:1013D0007E9E600D711D1124670D711D860F971F74
:1013E000A11DB11D893E43E09407A105B10508F494
:1013F00034C0885E9340A109B10942E0B695A79533
:10140000979587954A95D1F747E0849F080E211D4F
:10141000949F200D311D1124290F311D6091B401BD
:1014200070E0860F971F820F931F4091B701509174
:10143000B8016091B9017091BA01292F3327420F89
:10144000531F611D711D4093B7015093B801609304
:10145000B9017093BA018093B4017894C201DF910D
:10146000CF911F910F91FF90EF90DF90CF90AF90B1
:101470009F908F907F906F905F904F900C9442035D
:10148000579A08954F925F926F927F928F929F9298
:10149000AF92CF92DF92EF92FF920F931F93CF9371
:1014A000DF93EB010F962C010E944C03F894E88126
:1014B000F98105B1016015B11E7F15B9CA848F810C
:1014C0004C2D481B842F4F839F846A807B80FD8432
:1014D000EC84DE84F394E394D3949E8138858984EC
:1014E000AB844181D30120E0622F722F71814427A8
:1014F00088947111780F08F47FEF81958894F0FC3F
:10150000470F47958894F1FC470F47958894F2FC64
:10151000470F47958894F3FC470F47958894F4FC50
:10152000470F47958894F5FC470F47958894F6FC3C
:10153000470F47958894F7FC470F47958894272FC6
:10154000F110242F8C0D422F002C05B900C047FF4D
:1015500015B970812227889400C000C0002C15B9ED
:101560007111790F00C0002C05B900C046FF15B9F4
:1015700008F47FEF9195889400C000C0002C15B945
:10158000E0FC270F00C0002C05B900C045FF15B9CD
:1015900027958894E1FC270F00C000C0002C15B9E6
:1015A0002795889400C0002C05B900C044FF15B9E8
:1015B000E2FC270F2795889400C000C0002C15B9C5
:1015C000E3FC270F00C0002C05B900C043FF15B98C
:1015D00027958894E4FC270F00C000C0002C15B9A3
:1015E0002795889400C0002C05B900C042FF15B9AA
:1015F000E5FC270F2795889400C000C0002C15B982
:10160000E6FC270F00C0002C05B900C041FF15B94A
:1016100027958894E7FC270F00C000C0002C15B95F
:101620002795889400C0002C05B900C040FF15B96B
:10163000472FE110422F980D00C000C0002C15B9B3
:1016400000C000C0002C05B900C047FF15B9728169
:101650002227889400C000C0002C15B97111730FA7
:1016600000C0002C05B900C046FF15B908F47FEF93
:10167000E90DF11D00C000C0002C15B9D0FC270FEA
:1016800000C0002C05B900C045FF15B92795889406
:10169000D1FC270F00C000C0002C15B927958894F5
:1016A00000C0002C05B900C044FF15B9D2FC270FBB
:1016B0002795889400C000C0002C15B9D3FC270FD3
:1016C00000C0002C05B900C043FF15B927958894C8
:1016D000D4FC270F00C000C0002C15B927958894B2
:1016E00000C0002C05B900C042FF15B9D5FC270F7A
:1016F0002795889400C000C0002C15B9D6FC270F90
:1017000000C0002C05B900C041FF15B92795889489
:10171000D7FC270F00C000C0002C15B9279588946E
:1017200000C0002C05B900C040FF15B9472FD110EB
:10173000422F319500C000C0002C15B93A0D00C0F1
:1017400000C005B900C047FF15B9718122278894F0
:1017500000C000C0002C15B97111780F00C0002C1A
:1017600005B900C046FF15B908F47FEF819588944C
:1017700000C000C0002C15B9F0FC270F00C0002CE1
:1017800005B900C045FF15B927958894F1FC270FCE
:1017900000C000C0002C15B92795889400C0002C0B
:1017A00005B900C044FF15B9F2FC270F27958894AE
:1017B00000C000C0002C15B9F3FC270F00C0002C9E
:1017C00005B900C043FF15B927958894F4FC270F8D
:1017D00000C000C0002C15B92795889400C0002CCB
:1017E00005B900C042FF15B9F5FC270F279588946D
:1017F00000C000C0002C15B9F6FC270F00C0002C5B
:1018000005B900C041FF15B927958894F7FC270F4B
:1018100000C000C0002C15B92795889400C0002C8A
:1018200005B900C040FF15B9472FF110422F8C0DAC
:1018300000C000C0002C15B9119709F086CE20EE2B
:1018400031E0D3010E944217DC01CB01F4E0B695F0
:10185000A79597958795FA95D1F730E020E0B901E3
:10186000EAE96E9E060C611D7E9E600D711D1124BD
:10187000670D711D860F971FA11DB11D893E43E0A5
:101880009407A105B10508F434C0885E9340A1090E
:10189000B10942E0B695A795979587954A95D1F7F6
:1018A00047E0849F080E211D949F200D311D1124B7
:1018B000290F311D6091B40170E0860F971F820FD0
:1018C000931F4091B7015091B8016091B901709197
:1018D000BA01292F3327420F531F611D711D4093F9
:1018E000B7015093B8016093B9017093BA01809326
:1018F000B4017894C201DF91CF911F910F91FF90B5
:10190000EF90DF90CF90AF909F908F907F906F90EF
:101910005F904F900C944203209A08954F925F92EB
:101920006F927F928F929F92AF92CF92DF92EF92BF
:10193000FF920F931F93CF93DF93EB010F962C0130
:101940000E944C03F894E881F9810BB108601BB147
:10195000177F1BB9CA848F814C2D481B842F4F835E
:101960009F846A807B80FD84EC84DE84F394E3941E
:10197000D3949E8138858984AB844181D30120E052
:10198000622F722F7181442788947111780F08F4A7
:101990007FEF81958894F0FC470F47958894F1FC80
:1019A000470F47958894F2FC470F47958894F3FCBE
:1019B000470F47958894F4FC470F47958894F5FCAA
:1019C000470F47958894F6FC470F47958894F7FC96
:1019D000470F47958894272FF110242F8C0D422F05
:1019E000002C0BB900C047FF1BB9708122278894D7
:1019F00000C000C0002C1BB97111790F00C0002C71
:101A00000BB900C046FF1BB908F47FEF919588948D
:101A100000C000C0002C1BB9E0FC270F00C0002C48
:101A20000BB900C045FF1BB927958894E1FC270F2F
:101A300000C000C0002C1BB92795889400C0002C62
:101A40000BB900C044FF1BB9E2FC270F279588940F
:101A500000C000C0002C1BB9E3FC270F00C0002C05
:101A60000BB900C043FF1BB927958894E4FC270FEE
:101A700000C000C0002C1BB92795889400C0002C22
:101A80000BB900C042FF1BB9E5FC270F27958894CE
:101A900000C000C0002C1BB9E6FC270F00C0002CC2
:101AA0000BB900C041FF1BB927958894E7FC270FAD
:101AB00000C000C0002C1BB92795889400C0002CE2
:101AC0000BB900C040FF1BB9472FE110422F980D02
:101AD00000C000C0002C1BB900C000C0002C0BB916
:101AE00000C047FF1BB972812227889400C000C044
:101AF000002C1BB97111730F00C0002C0BB900C072
:101B000046FF1BB908F47FEFE90DF11D00C000C0CE
:101B1000002C1BB9D0FC270F00C0002C0BB900C053
:101B200045FF1BB927958894D1FC270F00C000C042
:101B3000002C1BB92795889400C0002C0BB900C05D
:101B400044FF1BB9D2FC270F2795889400C000C022
:101B5000002C1BB9D3FC270F00C0002C0BB900C010
:101B600043FF1BB927958894D4FC270F00C000C001
:101B7000002C1BB92795889400C0002C0BB900C01D
:101B800042FF1BB9D5FC270F2795889400C000C0E1
:101B9000002C1BB9D6FC270F00C0002C0BB900C0CD
:101BA00041FF1BB927958894D7FC270F00C000C0C0
:101BB000002C1BB92795889400C0002C0BB900C0DD
:101BC00040FF1BB9472FD110422F319500C000C0F4
:101BD000002C1BB93A0D00C000C00BB900C047FF74
:101BE0001BB971812227889400C000C0002C1BB94A
:101BF0007111780F00C0002C0BB900C046FF1BB953
:101C000008F47FEF8195889400C000C0002C1BB9B8
:101C1000F0FC270F00C0002C0BB900C045FF1BB91A
:101C200027958894F1FC270F00C000C0002C1BB939
:101C30002795889400C0002C0BB900C044FF1BB945
:101C4000F2FC270F2795889400C000C0002C1BB918
:101C5000F3FC270F00C0002C0BB900C043FF1BB9D9
:101C600027958894F4FC270F00C000C0002C1BB9F6
:101C70002795889400C0002C0BB900C042FF1BB907
:101C8000F5FC270F2795889400C000C0002C1BB9D5
:101C9000F6FC270F00C0002C0BB900C041FF1BB998
:101CA00027958894F7FC270F00C000C0002C1BB9B3
:101CB0002795889400C0002C0BB900C040FF1BB9C9
:101CC000472FF110422F8C0D00C000C0002C1BB913
:101CD000119709F086CE20EE31E0D3010E94421721
:101CE000DC01CB01F4E0B695A79597958795FA9519
:101CF000D1F730E020E0B901EAE96E9E060C611DE3
:101D00007E9E600D711D1124670D711D860F971F3A
:101D1000A11DB11D893E43E09407A105B10508F45A
:101D200034C0885E9340A109B10942E0B695A795F9
:101D3000979587954A95D1F747E0849F080E211D16
:101D4000949F200D311D1124290F311D6091B40184
:101D500070E0860F971F820F931F4091B70150913B
:101D6000B8016091B9017091BA01292F3327420F50
:101D7000531F611D711D4093B7015093B8016093CB
:101D8000B9017093BA018093B4017894C201DF91D4
:101D9000CF911F910F91FF90EF90DF90CF90AF9078
:101DA0009F908F907F906F905F904F900C94420324
:101DB000539A08954F925F926F927F928F929F9263
:101DC000AF92CF92DF92EF92FF920F931F93CF9338
:101DD000DF93EB010F962C010E944C03F894E881ED
:101DE000F9810BB100611BB11F7E1BB9CA848F81C1
:101DF0004C2D481B842F4F839F846A807B80FD84F9
:101E0000EC84DE84F394E394D3949E8138858984B2
:101E1000AB844181D30120E0622F722F718144276E
:101E200088947111780F08F47FEF81958894F0FC05
:101E3000470F47958894F1FC470F47958894F2FC2B
:101E4000470F47958894F3FC470F47958894F4FC17
:101E5000470F47958894F5FC470F47958894F6FC03
:101E6000470F47958894F7FC470F47958894272F8D
:101E7000F110242F8C0D422F002C0BB900C047FF0E
:101E80001BB970812227889400C000C0002C1BB9A8
:101E90007111790F00C0002C0BB900C046FF1BB9AF
:101EA00008F47FEF9195889400C000C0002C1BB906
:101EB000E0FC270F00C0002C0BB900C045FF1BB988
:101EC00027958894E1FC270F00C000C0002C1BB9A7
:101ED0002795889400C0002C0BB900C044FF1BB9A3
:101EE000E2FC270F2795889400C000C0002C1BB986
:101EF000E3FC270F00C0002C0BB900C043FF1BB947
:101F000027958894E4FC270F00C000C0002C1BB963
:101F10002795889400C0002C0BB900C042FF1BB964
:101F2000E5FC270F2795889400C000C0002C1BB942
:101F3000E6FC270F00C0002C0BB900C041FF1BB905
:101F400027958894E7FC270F00C000C0002C1BB920
:101F50002795889400C0002C0BB900C040FF1BB926
:101F6000472FE110422F980D00C000C0002C1BB974
:101F700000C000C0002C0BB900C047FF1BB9728124
:101F80002227889400C000C0002C1BB97111730F68
:101F900000C0002C0BB900C046FF1BB908F47FEF4E
:101FA000E90DF11D00C000C0002C1BB9D0FC270FAB
:101FB00000C0002C0BB900C045FF1BB927958894C1
:101FC000D1FC270F00C000C0002C1BB927958894B6
:101FD00000C0002C0BB900C044FF1BB9D2FC270F76
:101FE0002795889400C000C0002C1BB9D3FC270F94
:101FF00000C0002C0BB900C043FF1BB92795889483
:10200000D4FC270F00C000C0002C1BB92795889472
:1020100000C0002C0BB900C042FF1BB9D5FC270F34
:102020002795889400C000C0002C1BB9D6FC270F50
:1020300000C0002C0BB900C041FF1BB92795889444
:10204000D7FC270F00C000C0002C1BB9279588942F
:1020500000C0002C0BB900C040FF1BB9472FD110A6
:10206000422F319500C000C0002C1BB93A0D00C0B2
:1020700000C00BB900C047FF1BB9718122278894AB
:1020800000C000C0002C1BB97111780F00C0002CDB
:102090000BB900C046FF1BB908F47FEF8195889407
:1020A00000C000C0002C1BB9F0FC270F00C0002CA2
:1020B0000BB900C045FF1BB927958894F1FC270F89
:1020C00000C000C0002C1BB92795889400C0002CCC
:1020D0000BB900C044FF1BB9F2FC270F2795889469
:1020E00000C000C0002C1BB9F3FC270F00C0002C5F
:1020F0000BB900C043FF1BB927958894F4FC270F48
:1021000000C000C0002C1BB92795889400C0002C8B
:102110000BB900C042FF1BB9F5FC270F2795889427
:1021200000C000C0002C1BB9F6FC270F00C0002C1B
:102130000BB900C041FF1BB927958894F7FC270F06
:1021400000C000C0002C1BB92795889400C0002C4B
:102150000BB900C040FF1BB9472FF110422F8C0D67
:1021600000C000C0002C1BB9119709F086CE20EEEC
:1021700031E0D3010E944217DC01CB01F4E0B695B7
:10218000A79597958795FA95D1F730E020E0B901AA
:10219000EAE96E9E060C611D7E9E600D711D112484
:1021A000670D711D860F971FA11DB11D893E43E06C
:1021B0009407A105B10508F434C0885E9340A109D5
:1021C000B10942E0B695A795979587954A95D1F7BD
:1021D00047E0849F080E211D949F200D311D11247E
:1021E000290F311D6091B40170E0860F971F820F97
:1021F000931F4091B7015091B8016091B90170915E
:10220000BA01292F3327420F531F611D711D4093BF
:10221000B7015093B8016093B9017093BA018093EC
:10222000B4017894C201DF91CF911F910F91FF907B
:10223000EF90DF90CF90AF909F908F907F906F90B6
:102240005F904F900C944203549A08950F931F93FC
:10225000CF93DF93CDB7DEB762970FB6F894DEBFAA
:102260000FBECDBF8C01F901DC011C968C917A83E5
:1022700069835C834B835E834D8390819D879181CD
:102280009E8792819F878130F1F4CE0101960E9452
:10229000050383E0888B1A8A198AD801ED91FC9195
:1022A0000484F585E02DBE016F5F7F4FC80109955D
:1022B00062960FB6F894DEBF0FBECDBFDF91CF910F
:1022C0001F910F9108951C861B861A861986188601
:1022D0001F82DFCF0F931F93CF93DF93CDB7DEB76E
:1022E00062970FB6F894DEBF0FBECDBF8C01F90127
:1022F000DC011C968C917A8369835C834B835E83BB
:102300004D8390819D8791819E8792819F878130A7
:10231000E9F4CE0101960E940503188A1A8A198AE7
:10232000D801ED91FC910484F585E02DBE016F5F2D
:102330007F4FC801099562960FB6F894DEBF0FBEB5
:10234000CDBFDF91CF911F910F9108951C861B8601
:102350001A86198618861F82E0CFDF92EF92FF92CD
:102360000F931F93CF93DF93CDB7DEB7E0970FB6F0
:10237000F894DEBF0FBECDBF88E690E0DE01119677
:102380009E012F5C3F4F8D01FC0145915591659158
:1023900074916C9311965C93119712964C931297CB
:1023A00004961396A217B30779F70E9430019B0198
:1023B000AC0160E070ED83E490E00E94BA16892FD2
:1023C00096FD8095E82FEF738F7096FD8F5FE695F1
:1023D000E695E695E670F0E0EF5CFE4F2181289FE0
:1023E000202D812D112422952F708295807F282BFE
:1023F0008081280F97FD219520583FEB239F020EE7
:1024000020E0211D112480E4E82EE20EECE8F2E049
:1024100070E0F12C509161022E2D251B622F6F0D63
:10242000570F252F22952F705F70A22FAA0FA20F92
:10243000A00FB12FB11D3C9111969C91119712964E
:102440008C911297552309F431C013962F3009F45B
:10245000D8015295507F452F4095349F030E30E0B0
:10246000311D2C91259F020E20E0211D320F292FB6
:10247000249F020E20E0211DD22E11969C911197CF
:10248000292F259F020E20E0211D922F9D0D282F20
:10249000249F020E20E0211D12968C91482F459F0B
:1024A000040E40E0411D842F820F11246F3FD9F0AC
:1024B000662309F430C06F5F332321F0369F030E8B
:1024C00030E0311D992331F0292F269F020E20E0A4
:1024D000211D922F882331F0482F469F040E40E0A3
:1024E000411D842F11243083918382838AE0F80E6A
:1024F0007E5F3396783709F08DCFE0960FB6F8946B
:10250000DEBF0FBECDBFDF91CF911F910F91FF9026
:10251000EF90DF90089580E090E030E0E4CF0F93FB
:102520001F93CF93DF9300D01F92CDB7DEB780917A
:10253000610289838FEF8B8380EF8A830CE812E03E
:10254000B801CE0101960E9452028981895F898378
:102550000D5F1F4F83E00034180791F70F900F9025
:102560000F90DF91CF911F910F91089590E080E03F
:102570000895FC01858596850895CF93DF9300D05B
:1025800000D000D0CDB7DEB7AB011C821D821E8209
:10259000DC01ED91FC910190F081E02D19821A820D
:1025A0001B829E012F5F3F4FBE016C5F7F4F0995DD
:1025B00026960FB6F894DEBF0FBECDBFDF91CF9148
:1025C0000895FC0185E291E0918380831382128259
:1025D0008FEF86838783808781878287838781E0E7
:1025E00084871686158615821482809186029091C2
:1025F0008702892B21F4F0938702E0938602A09151
:10260000B201B091B301109721F01596FC93EE93AF
:102610001497F093B301E093B2010895FC01DB013C
:102620003C912081230F08F42FEF208311963C91D9
:1026300011972181230F08F42FEF218312963C91EB
:102640002281230F08F42FEF228308950F931F9305
:10265000CF93DF9300D000D000D0CDB7DEB785EFA9
:102660000E947F00809100019091010125E038E0F7
:10267000829F8001839F100D929F100D1124075E91
:10268000194C029FC001039F900D129F900D1124C1
:10269000875E994C9093010180930001890F20E49B
:1026A000829FC001112480916102890F898388EC87
:1026B0008A838FEF8B83BE016C5F7F4FCE010196C3
:1026C0000E9452029801ACE3B0E00E943317AA279F
:1026D000BB279C01220F331F820F931FBE016C5F2B
:1026E0007F4F84579D4F0E940E1326960FB6F89485
:1026F000DEBF0FBECDBFDF91CF911F910F91089527
:10270000CF93DF9300D01F92CDB7DEB70E948F1218
:10271000209100013091010145E058E0249FC00163
:10272000259F900D349F900D1124875E994C9093B6
:10273000010180930001292F280F203518F52FEF74
:1027400029832A832B83849F9001859F300D949F3A
:10275000300D1124275E394C309301012093000184
:10276000ACE3B0E00E943317AA27BB279C01220FDD
:10277000331F820F931FBE016F5F7F4F84579D4FA2
:102780000E940E130F900F900F90DF91CF9108953C
:10279000BC019C0183E0369527958A95E1F7377057
:1027A00076FF06C08FEF97E0AC01421B530B9A01F6
:1027B000E32FEE0FEE0FF0E0EE5FFE4F4081518110
:1027C00026958281FA01289FE00DF11D1124CF0189
:1027D00077FF03C091958195910908959C01AB0104
:1027E000869FB001359FC001E0E0349F700D811DD0
:1027F0009E1F259F700D811D9E1F1124620F731F48
:102800008E1F9E1F08950F931F93CF93DF9300D0C9
:1028100000D000D0CDB7DEB78BEE0E947F000E94C3
:1028200030019B01AC0160E078E38EE090E00E9413
:10283000BA160E94C8136BE370E090580E94EE1322
:102840008C018091610289838FEF8A8380EC8B8376
:10285000BE016C5F7F4FCE0101960E945202C801FB
:10286000880F991F800F911FBE016C5F7F4F8457A7
:102870009D4F0E940E1326960FB6F894DEBF0FBE32
:10288000CDBFDF91CF911F910F910895BF92CF924D
:10289000DF92EF92FF920F931F93CF93DF9300D0BD
:1028A00000D000D0CDB7DEB78BEE0E947F00C12CE8
:1028B00067E0D62EE12CF12C10E008ECBB24BA9492
:1028C00019830A83BB82BE016C5F7F4FCE010196E4
:1028D0000E9452020E9430019B01AC01A8E1B1E0CC
:1028E0000E9449179B01AC01C701B6010E94BA16AC
:1028F0000E94C8136BE370E090580E94EE134C8165
:102900009C01220F331FF901E80FF91FE457FD4F17
:102910005081541708F440834D81F901E80FF91FE5
:10292000E457FD4F5181541708F441834E81280F1D
:10293000391FF901E457FD4F8281841708F442835F
:10294000105E8FEFD81AE80AF80AC1148FE0D80693
:10295000E104F10409F0B4CF26960FB6F894DEBF77
:102960000FBECDBFDF91CF911F910F91FF90EF90E0
:10297000DF90CF90BF9008950E945A171F920F9238
:102980000FB60F9211242F933F938F939F93AF9382
:10299000BF938091B7019091B801A091B901B09116
:1029A000BA013091B60123E0230F2D3758F5019677
:1029B000A11DB11D2093B6018093B7019093B8017A
:1029C000A093B901B093BA018091BB019091BC0171
:1029D000A091BD01B091BE010196A11DB11D8093D2
:1029E000BB019093BC01A093BD01B093BE01BF9108
:1029F000AF919F918F913F912F910F900FBE0F90AC
:102A00001F90189526E8230F0296A11DB11DD2CF65
:102A1000789484B5826084BD84B5816084BD85B5B9
:102A2000826085BD85B5816085BD80916E008160C5
:102A300080936E001092810080918100826080936B
:102A4000810080918100816080938100809180006D
:102A50008160809380008091B10084608093B10098
:102A60008091B00081608093B00080917A00846092
:102A700080937A0080917A00826080937A008091BE
:102A80007A00816080937A0080917A0080688093D8
:102A90007A001092C10068EB7BE080E090E00E9439
:102AA000FE008091D001811111C08FEB91E00E9456
:102AB000E1121092CF011092CE018DE391E090933C
:102AC000C0018093BF0181E08093D0018FEB91E042
:102AD0000E949B008091E901811111C088ED91E075
:102AE0000E94E1121092E8011092E7018FE491E058
:102AF0009093D9018093D80181E08093E90188ED1A
:102B000091E00E949B0080910202811111C081EF2F
:102B100091E00E94E112109201021092000281E6FF
:102B200091E09093F2018093F10181E080930202A1
:102B300081EF91E00E949B0080911B02811111C0E6
:102B40008AE092E00E94E11210921A021092190299
:102B500083E791E090930B0280930A0281E08093D7
:102B60001B028AE092E00E949B0080913402811156
:102B700011C083E292E00E94E1121092330210929F
:102B8000320285E891E0909324028093230281E051
:102B90008093340283E292E00E949B0080914D0278
:102BA000811111C08CE392E00E94E11210924C025C
:102BB00010924B0287E991E090933D0280933C0292
:102BC00081E080934D028CE392E00E949B0080E6BE
:102BD0008093790298EEC92E93E0D92EE12CF12C46
:102BE00006E010E020E0222E20E0322E34E1832E99
:102BF000912CA12CB12CCAE0D0E0E0917202F0E05F
:102C0000EE0FFF1FEB55FE4F0190F081E02D09956F
:102C1000809179020E943C010E9430012B013C010D
:102C200061E070E080E090E00E94FE008091790217
:102C30000E943C010E9430016419750986099709B8
:102C4000683071058105910558F380916A02811100
:102C500015C00E94300160936202709363028093FA
:102C60006402909365028092660290926702A0923D
:102C70006802B092690281E080936A020E9430018A
:102C8000409062025090630260906402709065020E
:102C90006419750986099709409066025090670289
:102CA0006090680270906902641575058605970545
:102CB00078F00E9430016093620270936302809307
:102CC000640290936502809161028F5F809361023C
:102CD00080915902811111C00E943001A701960113
:102CE0000E94F2163093560220935502D093580258
:102CF000C093570281E0809359020E943001A701DE
:102D000096010E94F2168091550290915602281B5E
:102D1000390B80915702909158022817390798F083
:102D20000E943001A70196010E94F21630935602CC
:102D3000209355028091720290E00196B8010E94A2
:102D4000CA16809372022114310409F456CF0E94EE
:102D5000000053CFE9E7F2E08FEF80831282118207
:102D6000148613868FEF9FEFDC0187839087A187FE
:102D7000B2870895DB018F939F930E944917BF91FB
:102D8000AF91A29F800D911DA39F900DB29F900DBA
:102D900011240895AA1BBB1B51E107C0AA1FBB1F2A
:102DA000A617B70710F0A61BB70B881F991F5A95D7
:102DB000A9F780959095BC01CD01089597FB072E4A
:102DC00016F4009407D077FD09D00E94CA1607FCBC
:102DD00005D03EF4909581959F4F0895709561952B
:102DE0007F4F0895A1E21A2EAA1BBB1BFD010DC047
:102DF000AA1FBB1FEE1FFF1FA217B307E407F507AB
:102E000020F0A21BB30BE40BF50B661F771F881F86
:102E1000991F1A9469F760957095809590959B011C
:102E2000AC01BD01CF010895052E97FB1EF400945F
:102E30000E942B1757FD07D00E94F21607FC03D003
:102E40004EF40C942B1750954095309521953F4F9B
:102E50004F4F5F4F089590958095709561957F4F86
:102E60008F4F9F4F0895A29FB001B39FC001A39FB2
:102E7000700D811D1124911DB29F700D811D1124B3
:102E8000911D08950E943317B7FF0895821B930B7D
:102E900008950E943317A59F900DB49F900DA49F95
:102EA000800D911D11240895EE0FFF1F0590F491E0
:102EB000E02D099481E090E0F8940C945F17F89469
:022EC000FFCF42
:102EC200390500003100F9183000FB302C001C4796
:102ED2002600825A1F006D6A170041760E00897D16
:102EE2000400000000BC14BC14BC14BD12B912B61C
:102EF20012003131295A1B750A000000006A11269E
:102F020011A805BD12B912A5055B03000000006AF5
:102F1200112611F407BD12B912A505AA0500000079
:102F2200006A112611400ABD12B912A505F6070062
:102F32000000006A1126118C0CBD12B912A50542BF
:102F42000A000000006A112611D80EBD12B912A59E
:102F5200058E0C000000006A1126112411BD12B961
:102F620012A505DA0E8F128013261303144614AD30
:022F720011004C
:00000001FF
